{
  "address": "0x4a5af049c3FD1D9dedE54B938a01cE318806357D",
  "abi": [
    {
      "inputs": [],
      "stateMutability": "nonpayable",
      "type": "constructor"
    },
    {
      "anonymous": false,
      "inputs": [
        {
          "indexed": false,
          "internalType": "uint8",
          "name": "version",
          "type": "uint8"
        }
      ],
      "name": "Initialized",
      "type": "event"
    },
    {
      "anonymous": false,
      "inputs": [
        {
          "indexed": false,
          "internalType": "address",
          "name": "token",
          "type": "address"
        }
      ],
      "name": "RegisterLpToken",
      "type": "event"
    },
    {
      "inputs": [],
      "name": "getAddressProvider",
      "outputs": [
        {
          "internalType": "contract ICurveAddressProvider",
          "name": "",
          "type": "address"
        }
      ],
      "stateMutability": "view",
      "type": "function"
    },
    {
      "inputs": [
        {
          "internalType": "address",
          "name": "crvLp",
          "type": "address"
        }
      ],
      "name": "getPoolInfo",
      "outputs": [
        {
          "internalType": "address",
          "name": "pool",
          "type": "address"
        },
        {
          "internalType": "address[]",
          "name": "coins",
          "type": "address[]"
        },
        {
          "internalType": "uint256",
          "name": "virtualPrice",
          "type": "uint256"
        }
      ],
      "stateMutability": "view",
      "type": "function"
    },
    {
      "inputs": [
        {
          "internalType": "address",
          "name": "crvLp",
          "type": "address"
        },
        {
          "internalType": "bytes[]",
          "name": "tokensUsdOracleData",
          "type": "bytes[]"
        }
      ],
      "name": "getPrice",
      "outputs": [
        {
          "internalType": "uint256",
          "name": "",
          "type": "uint256"
        }
      ],
      "stateMutability": "nonpayable",
      "type": "function"
    },
    {
      "inputs": [
        {
          "internalType": "address",
          "name": "crvLp",
          "type": "address"
        }
      ],
      "name": "getTokenInfo",
      "outputs": [
        {
          "components": [
            {
              "internalType": "address",
              "name": "pool",
              "type": "address"
            },
            {
              "internalType": "address[]",
              "name": "tokens",
              "type": "address[]"
            },
            {
              "internalType": "uint256",
              "name": "registryIndex",
              "type": "uint256"
            }
          ],
          "internalType": "struct CurveBaseOracle.TokenInfo",
          "name": "",
          "type": "tuple"
        }
      ],
      "stateMutability": "view",
      "type": "function"
    },
    {
      "inputs": [
        {
          "internalType": "contract ICurveAddressProvider",
          "name": "_addressProvider",
          "type": "address"
        },
        {
          "internalType": "contract IPriceOracleV2",
          "name": "_primexPriceOracle",
          "type": "address"
        },
        {
          "internalType": "contract IAccessControl",
          "name": "_primexRegistry",
          "type": "address"
        }
      ],
      "name": "initialize",
      "outputs": [],
      "stateMutability": "nonpayable",
      "type": "function"
    },
    {
      "inputs": [],
      "name": "primexPriceOracle",
      "outputs": [
        {
          "internalType": "contract IPriceOracleV2",
          "name": "",
          "type": "address"
        }
      ],
      "stateMutability": "view",
      "type": "function"
    },
    {
      "inputs": [],
      "name": "primexRegistry",
      "outputs": [
        {
          "internalType": "contract IAccessControl",
          "name": "",
          "type": "address"
        }
      ],
      "stateMutability": "view",
      "type": "function"
    },
    {
      "inputs": [
        {
          "internalType": "address",
          "name": "crvLp",
          "type": "address"
        }
      ],
      "name": "registerCurveLp",
      "outputs": [],
      "stateMutability": "nonpayable",
      "type": "function"
    },
    {
      "inputs": [
        {
          "internalType": "bytes4",
          "name": "interfaceId",
          "type": "bytes4"
        }
      ],
      "name": "supportsInterface",
      "outputs": [
        {
          "internalType": "bool",
          "name": "",
          "type": "bool"
        }
      ],
      "stateMutability": "view",
      "type": "function"
    },
    {
      "stateMutability": "payable",
      "type": "receive"
    }
  ],
  "transactionHash": "0xceb7fea45a86e157f093a761c5da021e4d9772ae0091808200a00db254082ff5",
  "args": [],
  "numDeployments": 1,
  "solcInputHash": "2e4d15d04023f0d395019bf23626c23a",
  "bytecode": "0x608060405234602357600e6028565b60146028565b60405161157990816100ce8239f35b600080fd5b60005460ff8160081c1660785760ff8082160360415750565b60ff90811916176000557f7f26b83ff96e1f2b6a682f133852f6798a09c465da95921460cefb3847402498602060405160ff8152a1565b60405162461bcd60e51b815260206004820152602760248201527f496e697469616c697a61626c653a20636f6e747261637420697320696e697469604482015266616c697a696e6760c81b6064820152608490fdfe608080604052600436101561001d575b50361561001b57600080fd5b005b600090813560e01c90816301ffc9a714610acb5750806306bfa93814610a4757806313f839b9146105ec5780631f69565f146105595780632ac5869b146105305780633fd6293914610354578063c0c53b8b146100dd578063d7984f3a146100b45763f8c689340361000f57346100b157806003193601126100b1576035546040516001600160a01b039091168152602090f35b80fd5b50346100b157806003193601126100b1576034546040516001600160a01b039091168152602090f35b50346100b15760603660031901126100b1576004356001600160a01b03811690819003610350576024356001600160a01b0381169081900361034c576044356001600160a01b03811691908290036103485783549260ff8460081c16159384809561033b575b8015610324575b156102c85760ff1981166001178655846102b7575b506040516301ffc9a760e01b81526333ca6d2360e21b6004820152602081602481865afa90811561028d578691610298575b5080610226575b15610214576001600160601b0360a01b60355416176035556001600160601b0360a01b60345416176034556001600160601b0360a01b60335416176033556101dd5780f35b61ff001981541681557f7f26b83ff96e1f2b6a682f133852f6798a09c465da95921460cefb3847402498602060405160018152a180f35b60405163044aa57560e41b8152600490fd5b506040516301ffc9a760e01b8152637965db0b60e01b6004820152602081602481875afa90811561028d57869161025e575b50610198565b610280915060203d602011610286575b6102788183610b7a565b810190610c4c565b38610258565b503d61026e565b6040513d88823e3d90fd5b6102b1915060203d602011610286576102788183610b7a565b38610191565b61ffff19166101011785553861015f565b60405162461bcd60e51b815260206004820152602e60248201527f496e697469616c697a61626c653a20636f6e747261637420697320616c72656160448201526d191e481a5b9a5d1a585b1a5e995960921b6064820152608490fd5b50303b15801561014a5750600160ff82161461014a565b50600160ff821610610143565b8380fd5b8280fd5b5080fd5b50346100b15760203660031901126100b15761036e610b03565b603354604051632474521560e21b81527f5a7d4408f4759dddd7fdfd0d21abd99341dc2f52cda14804988a9b2df20766d8600482015233602482015290602090829060449082906001600160a01b03165afa908115610525578391610506575b50156104f4576001600160a01b0381169081156104e2576103ee90610f5f565b9192604051936103fd85610b48565b6001600160a01b0390811685526020808601938452604080870195865292875260369052908520935184546001600160a01b031916911617835551805190600184019067ffffffffffffffff83116104ce576801000000000000000083116104ce5781548383558084106104a8575b5060200190855260208520855b83811061048b57845160028701558680f35b82516001600160a01b031681830155602090920191600101610479565b828752836020882091820191015b8181106104c3575061046c565b8781556001016104b6565b634e487b7160e01b86526041600452602486fd5b60405163538ba4f960e01b8152600490fd5b60405163036be76f60e61b8152600490fd5b61051f915060203d602011610286576102788183610b7a565b386103ce565b6040513d85823e3d90fd5b50346100b157806003193601126100b1576033546040516001600160a01b039091168152602090f35b50346100b15760203660031901126100b15761057b610576610b03565b610b9c565b906040519060208252608082019060018060a01b038451166020840152602084015191606060408501528251809152602060a085019301915b8181106105cd5750505060408293015160608301520390f35b82516001600160a01b03168452602093840193909201916001016105b4565b50346100b15760403660031901126100b157610606610b03565b906024359067ffffffffffffffff82116100b157366023830112156100b15781600401359267ffffffffffffffff8411610350573660248560051b850101116103505761065290610c78565b9181518603610a32578151906001600160a01b03165a91600281036108cb57506040908151916106828184610b7a565b80368437813b156108c757516316cd8e2760e21b815260048101879052918690839082602483015b600282106108ab575050506064818394612710fa9182610892575b505090612710911560001461088d576106dc610e6a565b505b5a9003111561088657825b6108745790926000199190368190036042190190845b8351811015610837576034546001600160a01b03908116906107218387610b1e565b511690898310156108235760248360051b850101358581121561081f5784019160248301359267ffffffffffffffff841161081b5760440190833603821361081b579183918a60846020956040519788968795869363416be2f360e01b85526004850152610348602485015260606044850152816064850152848401378181018301849052601f01601f191681010301925af19081156108105787916107dd575b508581106107d4575b506001016106ff565b945060016107cb565b905060203d8111610809575b6107f38183610b7a565b602082600092810103126100b1575051386107c2565b503d6107e9565b6040513d89823e3d90fd5b8980fd5b8880fd5b634e487b7160e01b88526032600452602488fd5b5050505082810292818404149015171561086057602082670de0b6b3a764000060405191048152f35b634e487b7160e01b81526011600452602490fd5b604051630f9d066b60e41b8152600490fd5b60016106e9565b6106de565b8161089c91610b7a565b6108a75784386106c5565b8480fd5b825181528a9450869350602092830192600190920191016106aa565b8680fd5b600381036109795750604051906108e3606083610b7a565b6060368337803b156109755785604051809363ecb586a560e01b82528260048301526024820183905b60038210610959575050506084818394612710fa9182610944575b505090612710911560001461088d5761093e610e6a565b506106de565b8161094e91610b7a565b6108a7578438610927565b825181528a94508693506020928301926001909201910161090c565b8580fd5b60041461098b575b50612710906106de565b6040519061099a608083610b7a565b6080368337803b1561097557604051637d49d87560e01b815260048101879052918691839183602484015b60048210610a16575050508160a491612710fa90816109fe575b5061271091906109f9576109f1610e6a565b505b90610981565b6109f3565b94610a0e81612710949397610b7a565b9490916109df565b825181528a9550869450602092830192600190920191016109c5565b604051600162e6a1e960e01b03198152600490fd5b50346100b15760203660031901126100b157610a69610a64610b03565b610c78565b6040516001600160a01b039093168352606060208085018290528351918501829052608085019301905b808610610aa857505082935060408301520390f35b81516001600160a01b031684526001959095019460209384019390910190610a93565b9050346103505760203660031901126103505760043563ffffffff60e01b811680910361034c576301ffc9a760e01b14815260209150f35b600435906001600160a01b0382168203610b1957565b600080fd5b8051821015610b325760209160051b010190565b634e487b7160e01b600052603260045260246000fd5b6060810190811067ffffffffffffffff821117610b6457604052565b634e487b7160e01b600052604160045260246000fd5b90601f8019910116810190811067ffffffffffffffff821117610b6457604052565b600060408051610bab81610b48565b82815260606020820152015260018060a01b03166000526036602052604060002060405190610bd982610b48565b80546001600160a01b0316825260405160018201805480835260009182526020808320908401929091905b818110610c2d5750505090610c1e81600294930382610b7a565b60208401520154604082015290565b82546001600160a01b0316845260209093019260019283019201610c04565b90816020910312610b1957518015158103610b195790565b51906001600160a01b0382168203610b1957565b90600091606091600091610c8b81610b9c565b80516001600160a01b031615610e585760408101805115610dce575190600582148015610dc4575b610cbc57505050565b92935093509350602060018060a01b03603554169360246040518096819363124fd3dd60e21b835260048301525afa928315610d7c57600093610d88575b5080516020918201516040516362db83a560e11b81526001600160a01b03968716600482015290959094918116929185916024918391165afa928315610d7c57600093610d48575b50929190565b9092506020813d602011610d74575b81610d6460209383610b7a565b81010312610b1957519138610d42565b3d9150610d57565b6040513d6000823e3d90fd5b9092506020813d602011610dbc575b81610da460209383610b7a565b81010312610b1957610db590610c64565b9138610cfa565b3d9150610d97565b5060078214610cb3565b5060355460405163a262904b60e01b8152929650919450919250602090849060049082906001600160a01b03165afa928315610d7c57600093610d88575080516020918201516040516362db83a560e11b81526001600160a01b03968716600482015290959094918116929185916024918391165afa928315610d7c57600093610d485750929190565b604051630cc3378f60e31b8152600490fd5b3d15610ea5573d9067ffffffffffffffff8211610b645760405191610e99601f8201601f191660200184610b7a565b82523d6000602084013e565b606090565b9061010082820312610b195780601f83011215610b195761010060405192610ed28285610b7a565b83918101928311610b1957905b828210610eec5750505090565b60208091610ef984610c64565b815201910190610edf565b67ffffffffffffffff8111610b645760051b60200190565b90610f2682610f04565b610f336040519182610b7a565b8281528092610f44601f1991610f04565b0190602036910137565b906008811015610b325760051b0190565b9060018060a01b036035541660405163a262904b60e01b8152602081600481855afa908115610d7c57600091611509575b5060405163bdf475c360e01b81526001600160a01b0394851660048201819052949190911690602081602481855afa908115610d7c576000916114cf575b506001600160a01b038116806113d257505060405163124fd3dd60e21b8152600560048201529050602081602481855afa908115610d7c57600091611398575b5060405163bdf475c360e01b8152600481018590526001600160a01b039190911690602081602481855afa908115610d7c5760009161135e575b506001600160a01b038116806112605750505060206024916040519283809263124fd3dd60e21b8252600760048301525afa908115610d7c57600091611226575b5060405163bdf475c360e01b815260048101939093526001600160a01b031691602081602481865afa908115610d7c576000916111ec575b506001600160a01b038116806110e357604051630cc3378f60e31b8152600490fd5b60405163940494f160e01b81526004810182905290602082602481885afa918215610d7c576000926111b6575b5061010090602460405180978193639ac90d3d60e01b835260048301525afa938415610d7c57600094611185575b5061114881610f1c565b9360005b82811061115d575050509190600790565b6001906001600160a01b036111728285610f4e565b511661117e8289610b1e565b520161114c565b6111a89194506101003d81116111af575b6111a08183610b7a565b810190610eaa565b923861113e565b503d611196565b90916020823d6020116111e4575b816111d160209383610b7a565b810103126100b157505190610100611110565b3d91506111c4565b90506020813d60201161121e575b8161120760209383610b7a565b81010312610b195761121890610c64565b386110c1565b3d91506111fa565b90506020813d602011611258575b8161124160209383610b7a565b81010312610b195761125290610c64565b38611089565b3d9150611234565b60405163940494f160e01b815260048101829052929550909250602082602481885afa918215610d7c57600092611328575b5061010090602460405180978193639ac90d3d60e01b835260048301525afa938415610d7c57600094611307575b506112ca81610f1c565b9360005b8281106112df575050509190600590565b6001906001600160a01b036112f48285610f4e565b51166113008289610b1e565b52016112ce565b6113219194506101003d81116111af576111a08183610b7a565b92386112c0565b90916020823d602011611356575b8161134360209383610b7a565b810103126100b157505190610100611292565b3d9150611336565b90506020813d602011611390575b8161137960209383610b7a565b81010312610b195761138a90610c64565b38611048565b3d915061136c565b90506020813d6020116113ca575b816113b360209383610b7a565b81010312610b19576113c490610c64565b3861100e565b3d91506113a6565b91945091506040519063940494f160e01b8252806004830152604082602481885afa918215610d7c57600092611499575b5061010090602460405180978193639ac90d3d60e01b835260048301525afa938415610d7c57600094611478575b5061143b81610f1c565b9360005b828110611450575050509190600090565b6001906001600160a01b036114658285610f4e565b51166114718289610b1e565b520161143f565b6114929194506101003d81116111af576111a08183610b7a565b9238611431565b9091506040813d6040116114c7575b816114b560409383610b7a565b81010312610b19575190610100611403565b3d91506114a8565b90506020813d602011611501575b816114ea60209383610b7a565b81010312610b19576114fb90610c64565b38610fce565b3d91506114dd565b90506020813d60201161153b575b8161152460209383610b7a565b81010312610b195761153590610c64565b38610f90565b3d915061151756fea2646970667358221220c1b4c81ae463c5e63d5326809c68ff8869f3aebb8a3b51ab2b9d1c41f66a01d764736f6c634300081a0033",
  "devdoc": {
    "author": "BlueberryProtocol",
    "events": {
      "Initialized(uint8)": {
        "details": "Triggered when the contract has been initialized or reinitialized."
      },
      "RegisterLpToken(address)": {
        "params": {
          "token": "Address of the LP token being registered"
        }
      }
    },
    "kind": "dev",
    "methods": {
      "constructor": {
        "custom:oz-upgrades-unsafe-allow": "constructor"
      },
      "getPoolInfo(address)": {
        "params": {
          "crvLp": "The address of the Curve liquidity pool token (LP token)."
        },
        "returns": {
          "coins": "A list of underlying tokens in the Curve liquidity pool.",
          "pool": "Address of the pool contract.",
          "virtualPrice": "The current virtual price of the LP token for the given Curve liquidity pool."
        }
      },
      "getPrice(address,bytes[])": {
        "params": {
          "token": "Address of the LP token for which the price is requested.",
          "tokensUsdOracleData": "An array of oracle data to use for price calculations"
        },
        "returns": {
          "_0": "The USD price of the given token, multiplied by 10**18."
        }
      },
      "getTokenInfo(address)": {
        "params": {
          "crvLp": "Curve LP Token address"
        },
        "returns": {
          "_0": "TokenInfo struct of given token"
        }
      },
      "initialize(address,address,address)": {
        "params": {
          "_addressProvider": "Address of the curve address provider",
          "_primexPriceOracle": "The base oracle instance.",
          "_primexRegistry": "Address of the owner of the contract."
        }
      },
      "registerCurveLp(address)": {
        "params": {
          "crvLp": "Address of the Curve LP token."
        }
      },
      "supportsInterface(bytes4)": {
        "details": "See {IERC165-supportsInterface}."
      }
    },
    "stateVariables": {
      "_MAX_GAS": {
        "details": "Max gas for reentrancy check."
      }
    },
    "title": "CurveStableOracle",
    "version": 1
  },
  "userdoc": {
    "events": {
      "RegisterLpToken(address)": {
        "notice": "Event emitted when a new LP token is registered within its respective implementation."
      }
    },
    "kind": "user",
    "methods": {
      "getAddressProvider()": {
        "notice": "Returns the Curve Address Provider."
      },
      "getPoolInfo(address)": {
        "notice": "Fetches relevant information about a Curve liquidity pool."
      },
      "getPrice(address,bytes[])": {
        "notice": "Fetches the price of the given token in USD with 18 decimals precision."
      },
      "getTokenInfo(address)": {
        "notice": "Fetches the token info for a given LP token."
      },
      "initialize(address,address,address)": {
        "notice": "Initializes the contract"
      },
      "registerCurveLp(address)": {
        "notice": "Registers Curve LP token with the oracle."
      }
    },
    "notice": "Oracle contract that provides price feeds for Curve stable LP tokens.",
    "version": 1
  },
  "storageLayout": {
    "storage": [
      {
        "astId": 2890,
        "contract": "contracts/CurvePriceFeeds/CurveStableOracle.sol:CurveStableOracle",
        "label": "_initialized",
        "offset": 0,
        "slot": "0",
        "type": "t_uint8"
      },
      {
        "astId": 2893,
        "contract": "contracts/CurvePriceFeeds/CurveStableOracle.sol:CurveStableOracle",
        "label": "_initializing",
        "offset": 1,
        "slot": "0",
        "type": "t_bool"
      },
      {
        "astId": 6506,
        "contract": "contracts/CurvePriceFeeds/CurveStableOracle.sol:CurveStableOracle",
        "label": "__gap",
        "offset": 0,
        "slot": "1",
        "type": "t_array(t_uint256)50_storage"
      },
      {
        "astId": 29668,
        "contract": "contracts/CurvePriceFeeds/CurveStableOracle.sol:CurveStableOracle",
        "label": "primexRegistry",
        "offset": 0,
        "slot": "51",
        "type": "t_contract(IAccessControl)7879"
      },
      {
        "astId": 29672,
        "contract": "contracts/CurvePriceFeeds/CurveStableOracle.sol:CurveStableOracle",
        "label": "primexPriceOracle",
        "offset": 0,
        "slot": "52",
        "type": "t_contract(IPriceOracleV2)53399"
      },
      {
        "astId": 29676,
        "contract": "contracts/CurvePriceFeeds/CurveStableOracle.sol:CurveStableOracle",
        "label": "addressProvider",
        "offset": 0,
        "slot": "53",
        "type": "t_contract(ICurveAddressProvider)71766"
      },
      {
        "astId": 29682,
        "contract": "contracts/CurvePriceFeeds/CurveStableOracle.sol:CurveStableOracle",
        "label": "tokenInfo",
        "offset": 0,
        "slot": "54",
        "type": "t_mapping(t_address,t_struct(TokenInfo)29663_storage)"
      }
    ],
    "types": {
      "t_address": {
        "encoding": "inplace",
        "label": "address",
        "numberOfBytes": "20"
      },
      "t_array(t_address)dyn_storage": {
        "base": "t_address",
        "encoding": "dynamic_array",
        "label": "address[]",
        "numberOfBytes": "32"
      },
      "t_array(t_uint256)50_storage": {
        "base": "t_uint256",
        "encoding": "inplace",
        "label": "uint256[50]",
        "numberOfBytes": "1600"
      },
      "t_bool": {
        "encoding": "inplace",
        "label": "bool",
        "numberOfBytes": "1"
      },
      "t_contract(IAccessControl)7879": {
        "encoding": "inplace",
        "label": "contract IAccessControl",
        "numberOfBytes": "20"
      },
      "t_contract(ICurveAddressProvider)71766": {
        "encoding": "inplace",
        "label": "contract ICurveAddressProvider",
        "numberOfBytes": "20"
      },
      "t_contract(IPriceOracleV2)53399": {
        "encoding": "inplace",
        "label": "contract IPriceOracleV2",
        "numberOfBytes": "20"
      },
      "t_mapping(t_address,t_struct(TokenInfo)29663_storage)": {
        "encoding": "mapping",
        "key": "t_address",
        "label": "mapping(address => struct CurveBaseOracle.TokenInfo)",
        "numberOfBytes": "32",
        "value": "t_struct(TokenInfo)29663_storage"
      },
      "t_struct(TokenInfo)29663_storage": {
        "encoding": "inplace",
        "label": "struct CurveBaseOracle.TokenInfo",
        "members": [
          {
            "astId": 29657,
            "contract": "contracts/CurvePriceFeeds/CurveStableOracle.sol:CurveStableOracle",
            "label": "pool",
            "offset": 0,
            "slot": "0",
            "type": "t_address"
          },
          {
            "astId": 29660,
            "contract": "contracts/CurvePriceFeeds/CurveStableOracle.sol:CurveStableOracle",
            "label": "tokens",
            "offset": 0,
            "slot": "1",
            "type": "t_array(t_address)dyn_storage"
          },
          {
            "astId": 29662,
            "contract": "contracts/CurvePriceFeeds/CurveStableOracle.sol:CurveStableOracle",
            "label": "registryIndex",
            "offset": 0,
            "slot": "2",
            "type": "t_uint256"
          }
        ],
        "numberOfBytes": "96"
      },
      "t_uint256": {
        "encoding": "inplace",
        "label": "uint256",
        "numberOfBytes": "32"
      },
      "t_uint8": {
        "encoding": "inplace",
        "label": "uint8",
        "numberOfBytes": "1"
      }
    }
  }
}