{
  "address": "0xb924809CDcA1f712270B9eDA3147a475949E2C42",
  "abi": [
    {
      "inputs": [],
      "stateMutability": "nonpayable",
      "type": "constructor"
    },
    {
      "inputs": [],
      "name": "DS_MATH_ADD_OVERFLOW",
      "type": "error"
    },
    {
      "inputs": [],
      "name": "DS_MATH_MUL_OVERFLOW",
      "type": "error"
    },
    {
      "anonymous": false,
      "inputs": [
        {
          "indexed": true,
          "internalType": "address",
          "name": "token",
          "type": "address"
        },
        {
          "indexed": true,
          "internalType": "address",
          "name": "priceFeed",
          "type": "address"
        }
      ],
      "name": "ChainlinkPriceFeedUpdated",
      "type": "event"
    },
    {
      "anonymous": false,
      "inputs": [
        {
          "indexed": true,
          "internalType": "enum IPriceOracleStorageV4.CurveOracleKind",
          "name": "oracleType",
          "type": "uint8"
        },
        {
          "indexed": true,
          "internalType": "address",
          "name": "oracle",
          "type": "address"
        }
      ],
      "name": "CurveOracleUpdated",
      "type": "event"
    },
    {
      "anonymous": false,
      "inputs": [
        {
          "indexed": false,
          "internalType": "address",
          "name": "priceFeed",
          "type": "address"
        }
      ],
      "name": "GasPriceFeedChanged",
      "type": "event"
    },
    {
      "anonymous": false,
      "inputs": [
        {
          "indexed": false,
          "internalType": "uint8",
          "name": "version",
          "type": "uint8"
        }
      ],
      "name": "Initialized",
      "type": "event"
    },
    {
      "anonymous": false,
      "inputs": [
        {
          "indexed": true,
          "internalType": "address",
          "name": "tokenA",
          "type": "address"
        },
        {
          "indexed": true,
          "internalType": "address",
          "name": "tokenB",
          "type": "address"
        },
        {
          "indexed": false,
          "internalType": "string",
          "name": "symbol",
          "type": "string"
        }
      ],
      "name": "OrallySymbolUpdated",
      "type": "event"
    },
    {
      "anonymous": false,
      "inputs": [
        {
          "indexed": false,
          "internalType": "uint256",
          "name": "timeTolerance",
          "type": "uint256"
        }
      ],
      "name": "OrallyTimeToleranceUpdated",
      "type": "event"
    },
    {
      "anonymous": false,
      "inputs": [
        {
          "indexed": true,
          "internalType": "address",
          "name": "assetA",
          "type": "address"
        },
        {
          "indexed": true,
          "internalType": "address",
          "name": "assetB",
          "type": "address"
        },
        {
          "indexed": false,
          "internalType": "uint256",
          "name": "pairPriceDrop",
          "type": "uint256"
        }
      ],
      "name": "PairPriceDropChanged",
      "type": "event"
    },
    {
      "anonymous": false,
      "inputs": [
        {
          "indexed": true,
          "internalType": "address",
          "name": "assetA",
          "type": "address"
        },
        {
          "indexed": true,
          "internalType": "address",
          "name": "assetB",
          "type": "address"
        },
        {
          "indexed": true,
          "internalType": "address",
          "name": "priceDropFeed",
          "type": "address"
        }
      ],
      "name": "PriceDropFeedUpdated",
      "type": "event"
    },
    {
      "anonymous": false,
      "inputs": [
        {
          "indexed": true,
          "internalType": "address",
          "name": "assetA",
          "type": "address"
        },
        {
          "indexed": true,
          "internalType": "address",
          "name": "assetB",
          "type": "address"
        },
        {
          "indexed": true,
          "internalType": "address",
          "name": "priceFeed",
          "type": "address"
        }
      ],
      "name": "PriceFeedUpdated",
      "type": "event"
    },
    {
      "anonymous": false,
      "inputs": [
        {
          "indexed": true,
          "internalType": "address",
          "name": "token",
          "type": "address"
        },
        {
          "indexed": true,
          "internalType": "bytes32",
          "name": "priceFeedId",
          "type": "bytes32"
        }
      ],
      "name": "PythPairIdUpdated",
      "type": "event"
    },
    {
      "anonymous": false,
      "inputs": [
        {
          "indexed": true,
          "internalType": "address",
          "name": "tokenA",
          "type": "address"
        },
        {
          "indexed": true,
          "internalType": "address",
          "name": "tokenB",
          "type": "address"
        },
        {
          "indexed": false,
          "internalType": "string",
          "name": "pairId",
          "type": "string"
        }
      ],
      "name": "StorkPairIdUpdated",
      "type": "event"
    },
    {
      "anonymous": false,
      "inputs": [
        {
          "indexed": true,
          "internalType": "address",
          "name": "tokenA",
          "type": "address"
        },
        {
          "indexed": true,
          "internalType": "address",
          "name": "tokenB",
          "type": "address"
        },
        {
          "indexed": false,
          "internalType": "uint256",
          "name": "id",
          "type": "uint256"
        }
      ],
      "name": "SupraDataFeedUpdated",
      "type": "event"
    },
    {
      "anonymous": false,
      "inputs": [
        {
          "indexed": false,
          "internalType": "uint256",
          "name": "timeTolerance",
          "type": "uint256"
        }
      ],
      "name": "TimeToleranceUpdated",
      "type": "event"
    },
    {
      "anonymous": false,
      "inputs": [
        {
          "indexed": true,
          "internalType": "uint256",
          "name": "oracleType",
          "type": "uint256"
        },
        {
          "indexed": true,
          "internalType": "address",
          "name": "oracle",
          "type": "address"
        }
      ],
      "name": "Univ3OracleUpdated",
      "type": "event"
    },
    {
      "anonymous": false,
      "inputs": [
        {
          "indexed": true,
          "internalType": "uint256",
          "name": "oracleType",
          "type": "uint256"
        },
        {
          "indexed": true,
          "internalType": "address",
          "name": "tokenA",
          "type": "address"
        },
        {
          "indexed": true,
          "internalType": "address",
          "name": "tokenB",
          "type": "address"
        },
        {
          "indexed": false,
          "internalType": "bool",
          "name": "isTrusted",
          "type": "bool"
        }
      ],
      "name": "Univ3TrustedPairUpdated",
      "type": "event"
    },
    {
      "inputs": [
        {
          "internalType": "address",
          "name": "",
          "type": "address"
        }
      ],
      "name": "chainlinkPriceFeedsUsd",
      "outputs": [
        {
          "internalType": "address",
          "name": "",
          "type": "address"
        }
      ],
      "stateMutability": "view",
      "type": "function"
    },
    {
      "inputs": [
        {
          "internalType": "enum IPriceOracleStorageV4.CurveOracleKind",
          "name": "",
          "type": "uint8"
        }
      ],
      "name": "curveTypeOracles",
      "outputs": [
        {
          "internalType": "address",
          "name": "",
          "type": "address"
        }
      ],
      "stateMutability": "view",
      "type": "function"
    },
    {
      "inputs": [],
      "name": "eth",
      "outputs": [
        {
          "internalType": "address",
          "name": "",
          "type": "address"
        }
      ],
      "stateMutability": "view",
      "type": "function"
    },
    {
      "inputs": [],
      "name": "gasPriceFeed",
      "outputs": [
        {
          "internalType": "address",
          "name": "",
          "type": "address"
        }
      ],
      "stateMutability": "view",
      "type": "function"
    },
    {
      "inputs": [
        {
          "internalType": "address",
          "name": "assetA",
          "type": "address"
        },
        {
          "internalType": "address",
          "name": "assetB",
          "type": "address"
        },
        {
          "internalType": "bytes",
          "name": "oracleData",
          "type": "bytes"
        }
      ],
      "name": "getExchangeRate",
      "outputs": [
        {
          "internalType": "uint256",
          "name": "",
          "type": "uint256"
        }
      ],
      "stateMutability": "payable",
      "type": "function"
    },
    {
      "inputs": [],
      "name": "getGasPrice",
      "outputs": [
        {
          "internalType": "int256",
          "name": "price",
          "type": "int256"
        }
      ],
      "stateMutability": "view",
      "type": "function"
    },
    {
      "inputs": [
        {
          "internalType": "address",
          "name": "assetA",
          "type": "address"
        },
        {
          "internalType": "address",
          "name": "assetB",
          "type": "address"
        }
      ],
      "name": "getOraclePriceDrop",
      "outputs": [
        {
          "internalType": "uint256",
          "name": "",
          "type": "uint256"
        }
      ],
      "stateMutability": "view",
      "type": "function"
    },
    {
      "inputs": [
        {
          "internalType": "address",
          "name": "assetA",
          "type": "address"
        },
        {
          "internalType": "address",
          "name": "assetB",
          "type": "address"
        }
      ],
      "name": "getOraclePriceDropFeed",
      "outputs": [
        {
          "internalType": "address",
          "name": "",
          "type": "address"
        }
      ],
      "stateMutability": "view",
      "type": "function"
    },
    {
      "inputs": [
        {
          "internalType": "address",
          "name": "_assetA",
          "type": "address"
        },
        {
          "internalType": "address",
          "name": "_assetB",
          "type": "address"
        }
      ],
      "name": "getPairPriceDrop",
      "outputs": [
        {
          "internalType": "uint256",
          "name": "priceDrop",
          "type": "uint256"
        }
      ],
      "stateMutability": "view",
      "type": "function"
    },
    {
      "inputs": [
        {
          "internalType": "address",
          "name": "_assetA",
          "type": "address"
        },
        {
          "internalType": "address",
          "name": "_assetB",
          "type": "address"
        },
        {
          "internalType": "uint256",
          "name": "_pairPriceDrop",
          "type": "uint256"
        }
      ],
      "name": "increasePairPriceDrop",
      "outputs": [],
      "stateMutability": "nonpayable",
      "type": "function"
    },
    {
      "inputs": [
        {
          "internalType": "address",
          "name": "_registry",
          "type": "address"
        },
        {
          "internalType": "address",
          "name": "_eth",
          "type": "address"
        },
        {
          "internalType": "address",
          "name": "_usdt",
          "type": "address"
        },
        {
          "internalType": "address",
          "name": "_treasury",
          "type": "address"
        }
      ],
      "name": "initialize",
      "outputs": [],
      "stateMutability": "nonpayable",
      "type": "function"
    },
    {
      "inputs": [],
      "name": "orallyOracle",
      "outputs": [
        {
          "internalType": "contract IOrallyVerifierOracle",
          "name": "",
          "type": "address"
        }
      ],
      "stateMutability": "view",
      "type": "function"
    },
    {
      "inputs": [
        {
          "internalType": "address",
          "name": "",
          "type": "address"
        },
        {
          "internalType": "address",
          "name": "",
          "type": "address"
        }
      ],
      "name": "orallySymbol",
      "outputs": [
        {
          "internalType": "string",
          "name": "",
          "type": "string"
        }
      ],
      "stateMutability": "view",
      "type": "function"
    },
    {
      "inputs": [],
      "name": "orallyTimeTolerance",
      "outputs": [
        {
          "internalType": "uint256",
          "name": "",
          "type": "uint256"
        }
      ],
      "stateMutability": "view",
      "type": "function"
    },
    {
      "inputs": [
        {
          "internalType": "address",
          "name": "",
          "type": "address"
        },
        {
          "internalType": "address",
          "name": "",
          "type": "address"
        }
      ],
      "name": "pairPriceDrops",
      "outputs": [
        {
          "internalType": "uint256",
          "name": "",
          "type": "uint256"
        }
      ],
      "stateMutability": "view",
      "type": "function"
    },
    {
      "inputs": [],
      "name": "pyth",
      "outputs": [
        {
          "internalType": "contract IPyth",
          "name": "",
          "type": "address"
        }
      ],
      "stateMutability": "view",
      "type": "function"
    },
    {
      "inputs": [
        {
          "internalType": "address",
          "name": "",
          "type": "address"
        }
      ],
      "name": "pythPairIds",
      "outputs": [
        {
          "internalType": "bytes32",
          "name": "",
          "type": "bytes32"
        }
      ],
      "stateMutability": "view",
      "type": "function"
    },
    {
      "inputs": [],
      "name": "registry",
      "outputs": [
        {
          "internalType": "address",
          "name": "",
          "type": "address"
        }
      ],
      "stateMutability": "view",
      "type": "function"
    },
    {
      "inputs": [
        {
          "internalType": "address",
          "name": "priceFeed",
          "type": "address"
        }
      ],
      "name": "setGasPriceFeed",
      "outputs": [],
      "stateMutability": "nonpayable",
      "type": "function"
    },
    {
      "inputs": [
        {
          "internalType": "address",
          "name": "_orally",
          "type": "address"
        }
      ],
      "name": "setOrallyOracle",
      "outputs": [],
      "stateMutability": "nonpayable",
      "type": "function"
    },
    {
      "inputs": [
        {
          "internalType": "uint256",
          "name": "_orallyTimeTolerance",
          "type": "uint256"
        }
      ],
      "name": "setOrallyTimeTolerance",
      "outputs": [],
      "stateMutability": "nonpayable",
      "type": "function"
    },
    {
      "inputs": [
        {
          "internalType": "address",
          "name": "_assetA",
          "type": "address"
        },
        {
          "internalType": "address",
          "name": "_assetB",
          "type": "address"
        },
        {
          "internalType": "uint256",
          "name": "_pairPriceDrop",
          "type": "uint256"
        }
      ],
      "name": "setPairPriceDrop",
      "outputs": [],
      "stateMutability": "nonpayable",
      "type": "function"
    },
    {
      "inputs": [
        {
          "internalType": "address",
          "name": "_pyth",
          "type": "address"
        }
      ],
      "name": "setPyth",
      "outputs": [],
      "stateMutability": "nonpayable",
      "type": "function"
    },
    {
      "inputs": [
        {
          "internalType": "address",
          "name": "_storkPublicKey",
          "type": "address"
        }
      ],
      "name": "setStorkPublicKey",
      "outputs": [],
      "stateMutability": "nonpayable",
      "type": "function"
    },
    {
      "inputs": [
        {
          "internalType": "address",
          "name": "_storkVerify",
          "type": "address"
        }
      ],
      "name": "setStorkVerify",
      "outputs": [],
      "stateMutability": "nonpayable",
      "type": "function"
    },
    {
      "inputs": [
        {
          "internalType": "address",
          "name": "_supraPullOracle",
          "type": "address"
        }
      ],
      "name": "setSupraPullOracle",
      "outputs": [],
      "stateMutability": "nonpayable",
      "type": "function"
    },
    {
      "inputs": [
        {
          "internalType": "address",
          "name": "_supraStorageOracle",
          "type": "address"
        }
      ],
      "name": "setSupraStorageOracle",
      "outputs": [],
      "stateMutability": "nonpayable",
      "type": "function"
    },
    {
      "inputs": [
        {
          "internalType": "uint256",
          "name": "_timeTolerance",
          "type": "uint256"
        }
      ],
      "name": "setTimeTolerance",
      "outputs": [],
      "stateMutability": "nonpayable",
      "type": "function"
    },
    {
      "inputs": [
        {
          "internalType": "address",
          "name": "_treasury",
          "type": "address"
        }
      ],
      "name": "setTreasury",
      "outputs": [],
      "stateMutability": "nonpayable",
      "type": "function"
    },
    {
      "inputs": [
        {
          "internalType": "address",
          "name": "_usdt",
          "type": "address"
        }
      ],
      "name": "setUSDT",
      "outputs": [],
      "stateMutability": "nonpayable",
      "type": "function"
    },
    {
      "inputs": [
        {
          "internalType": "address",
          "name": "",
          "type": "address"
        },
        {
          "internalType": "address",
          "name": "",
          "type": "address"
        }
      ],
      "name": "storkAssetPairId",
      "outputs": [
        {
          "internalType": "string",
          "name": "",
          "type": "string"
        }
      ],
      "stateMutability": "view",
      "type": "function"
    },
    {
      "inputs": [],
      "name": "storkPublicKey",
      "outputs": [
        {
          "internalType": "address",
          "name": "",
          "type": "address"
        }
      ],
      "stateMutability": "view",
      "type": "function"
    },
    {
      "inputs": [],
      "name": "storkVerify",
      "outputs": [
        {
          "internalType": "contract IStorkVerify",
          "name": "",
          "type": "address"
        }
      ],
      "stateMutability": "view",
      "type": "function"
    },
    {
      "inputs": [
        {
          "internalType": "bytes4",
          "name": "_interfaceId",
          "type": "bytes4"
        }
      ],
      "name": "supportsInterface",
      "outputs": [
        {
          "internalType": "bool",
          "name": "",
          "type": "bool"
        }
      ],
      "stateMutability": "view",
      "type": "function"
    },
    {
      "inputs": [
        {
          "internalType": "address",
          "name": "",
          "type": "address"
        },
        {
          "internalType": "address",
          "name": "",
          "type": "address"
        }
      ],
      "name": "supraDataFeedID",
      "outputs": [
        {
          "internalType": "uint256",
          "name": "id",
          "type": "uint256"
        },
        {
          "internalType": "bool",
          "name": "initialize",
          "type": "bool"
        }
      ],
      "stateMutability": "view",
      "type": "function"
    },
    {
      "inputs": [],
      "name": "supraPullOracle",
      "outputs": [
        {
          "internalType": "contract ISupraOraclePull",
          "name": "",
          "type": "address"
        }
      ],
      "stateMutability": "view",
      "type": "function"
    },
    {
      "inputs": [],
      "name": "supraStorageOracle",
      "outputs": [
        {
          "internalType": "contract ISupraSValueFeed",
          "name": "",
          "type": "address"
        }
      ],
      "stateMutability": "view",
      "type": "function"
    },
    {
      "inputs": [],
      "name": "timeTolerance",
      "outputs": [
        {
          "internalType": "uint256",
          "name": "",
          "type": "uint256"
        }
      ],
      "stateMutability": "view",
      "type": "function"
    },
    {
      "inputs": [],
      "name": "treasury",
      "outputs": [
        {
          "internalType": "address",
          "name": "",
          "type": "address"
        }
      ],
      "stateMutability": "view",
      "type": "function"
    },
    {
      "inputs": [
        {
          "internalType": "uint256",
          "name": "",
          "type": "uint256"
        },
        {
          "internalType": "address",
          "name": "",
          "type": "address"
        },
        {
          "internalType": "address",
          "name": "",
          "type": "address"
        }
      ],
      "name": "univ3TrustedPairs",
      "outputs": [
        {
          "internalType": "bool",
          "name": "",
          "type": "bool"
        }
      ],
      "stateMutability": "view",
      "type": "function"
    },
    {
      "inputs": [
        {
          "internalType": "uint256",
          "name": "",
          "type": "uint256"
        }
      ],
      "name": "univ3TypeOracles",
      "outputs": [
        {
          "internalType": "address",
          "name": "",
          "type": "address"
        }
      ],
      "stateMutability": "view",
      "type": "function"
    },
    {
      "inputs": [
        {
          "internalType": "address[]",
          "name": "_tokens",
          "type": "address[]"
        },
        {
          "internalType": "address[]",
          "name": "_feeds",
          "type": "address[]"
        }
      ],
      "name": "updateChainlinkPriceFeedsUsd",
      "outputs": [],
      "stateMutability": "nonpayable",
      "type": "function"
    },
    {
      "inputs": [
        {
          "internalType": "enum IPriceOracleStorageV4.CurveOracleKind[]",
          "name": "_oracleTypes",
          "type": "uint8[]"
        },
        {
          "internalType": "address[]",
          "name": "_oracles",
          "type": "address[]"
        }
      ],
      "name": "updateCurveTypeOracle",
      "outputs": [],
      "stateMutability": "nonpayable",
      "type": "function"
    },
    {
      "inputs": [
        {
          "components": [
            {
              "internalType": "string",
              "name": "symbol",
              "type": "string"
            },
            {
              "internalType": "address[2]",
              "name": "tokens",
              "type": "address[2]"
            }
          ],
          "internalType": "struct IPriceOracleV3.UpdateOrallySymbolsParams[]",
          "name": "params",
          "type": "tuple[]"
        }
      ],
      "name": "updateOrallySymbols",
      "outputs": [],
      "stateMutability": "nonpayable",
      "type": "function"
    },
    {
      "inputs": [
        {
          "internalType": "address",
          "name": "assetA",
          "type": "address"
        },
        {
          "internalType": "address",
          "name": "assetB",
          "type": "address"
        },
        {
          "internalType": "address",
          "name": "priceDropFeed",
          "type": "address"
        }
      ],
      "name": "updatePriceDropFeed",
      "outputs": [],
      "stateMutability": "nonpayable",
      "type": "function"
    },
    {
      "inputs": [
        {
          "components": [
            {
              "internalType": "address",
              "name": "assetA",
              "type": "address"
            },
            {
              "internalType": "address",
              "name": "assetB",
              "type": "address"
            },
            {
              "internalType": "address",
              "name": "priceDropFeed",
              "type": "address"
            }
          ],
          "internalType": "struct IPriceOracleV2.UpdatePriceDropFeedsParams[]",
          "name": "_updateParams",
          "type": "tuple[]"
        }
      ],
      "name": "updatePriceDropFeeds",
      "outputs": [],
      "stateMutability": "nonpayable",
      "type": "function"
    },
    {
      "inputs": [
        {
          "internalType": "bytes[][]",
          "name": "_data",
          "type": "bytes[][]"
        },
        {
          "internalType": "uint256[]",
          "name": "_oracleTypes",
          "type": "uint256[]"
        }
      ],
      "name": "updatePullOracle",
      "outputs": [],
      "stateMutability": "payable",
      "type": "function"
    },
    {
      "inputs": [
        {
          "internalType": "address[]",
          "name": "_tokens",
          "type": "address[]"
        },
        {
          "internalType": "bytes32[]",
          "name": "_priceFeedIds",
          "type": "bytes32[]"
        }
      ],
      "name": "updatePythPairId",
      "outputs": [],
      "stateMutability": "nonpayable",
      "type": "function"
    },
    {
      "inputs": [
        {
          "components": [
            {
              "internalType": "string",
              "name": "pair",
              "type": "string"
            },
            {
              "internalType": "address[2]",
              "name": "tokens",
              "type": "address[2]"
            }
          ],
          "internalType": "struct IPriceOracleV3.UpdateStorkPairIdsParams[]",
          "name": "params",
          "type": "tuple[]"
        }
      ],
      "name": "updateStorkPairIds",
      "outputs": [],
      "stateMutability": "nonpayable",
      "type": "function"
    },
    {
      "inputs": [
        {
          "components": [
            {
              "internalType": "address",
              "name": "tokenA",
              "type": "address"
            },
            {
              "internalType": "address",
              "name": "tokenB",
              "type": "address"
            },
            {
              "components": [
                {
                  "internalType": "uint256",
                  "name": "id",
                  "type": "uint256"
                },
                {
                  "internalType": "bool",
                  "name": "initialize",
                  "type": "bool"
                }
              ],
              "internalType": "struct IPriceOracleStorageV3.SupraDataFeedId",
              "name": "feedData",
              "type": "tuple"
            }
          ],
          "internalType": "struct IPriceOracleV2.UpdateSupraDataFeedParams[]",
          "name": "_params",
          "type": "tuple[]"
        }
      ],
      "name": "updateSupraDataFeed",
      "outputs": [],
      "stateMutability": "nonpayable",
      "type": "function"
    },
    {
      "inputs": [
        {
          "components": [
            {
              "internalType": "uint256",
              "name": "oracleType",
              "type": "uint256"
            },
            {
              "internalType": "address",
              "name": "tokenA",
              "type": "address"
            },
            {
              "internalType": "address",
              "name": "tokenB",
              "type": "address"
            },
            {
              "internalType": "bool",
              "name": "isTrusted",
              "type": "bool"
            }
          ],
          "internalType": "struct IPriceOracleV2.UpdateUniv3TrustedPairParams[]",
          "name": "_updateParams",
          "type": "tuple[]"
        }
      ],
      "name": "updateUniv3TrustedPair",
      "outputs": [],
      "stateMutability": "nonpayable",
      "type": "function"
    },
    {
      "inputs": [
        {
          "internalType": "uint256[]",
          "name": "_oracleTypes",
          "type": "uint256[]"
        },
        {
          "internalType": "address[]",
          "name": "_oracles",
          "type": "address[]"
        }
      ],
      "name": "updateUniv3TypeOracle",
      "outputs": [],
      "stateMutability": "nonpayable",
      "type": "function"
    },
    {
      "inputs": [],
      "name": "usdt",
      "outputs": [
        {
          "internalType": "address",
          "name": "",
          "type": "address"
        }
      ],
      "stateMutability": "view",
      "type": "function"
    }
  ],
  "transactionHash": "0xc413842794f75a22fe391a39ec2474d860a96b47831ee93d7c994af440fa1824",
  "args": [],
  "numDeployments": 1,
  "solcInputHash": "2e4d15d04023f0d395019bf23626c23a",
  "bytecode": "0x6080806040523460bd576000549060ff8260081c16606b575060ff808216036031575b6040516145df90816100c38239f35b60ff90811916176000557f7f26b83ff96e1f2b6a682f133852f6798a09c465da95921460cefb3847402498602060405160ff8152a1386022565b62461bcd60e51b815260206004820152602760248201527f496e697469616c697a61626c653a20636f6e747261637420697320696e697469604482015266616c697a696e6760c81b6064820152608490fd5b600080fdfe608080604052600436101561001357600080fd5b60003560e01c90816301ffc9a714612c625750806304aca68b14612b135780630a3c434c146129e85780630bc6b203146129845780630fa95a421461296657806318c92f411461293d5780631e6a948f1461291457806322c1ea40146128be5780632ecd987d1461281c5780632f48ab7d146127f357806339d9043414612658578063416be2f3146121d7578063455259cb146121435780634858138f146120f257806350c1b9231461205057806350d3a9c614611db157806350f6099014611d6b5780635362be5a14611cfd57806354f7623714611c5b5780635510bfce14611a435780635d4934c0146119a157806361d027b31461197857806376b926e41461194c5780637b1039991461192357806384574738146118b95780638c7c9e0c146118905780638eeae4a714611867578063970b6e78146117b257806398bbc8dd1461177e5780639fb9b68f146116dc578063a5bbe8b514611633578063a6d1b920146115f1578063ac8c5db914611561578063b29ce00d14611527578063b45994f81461144e578063b508e5d1146113ac578063b8b72b1f146110f1578063bc5adf3714610fd6578063be49304e14610ef2578063c83978fa14610ed4578063cbaf3d0914610e15578063cc2e4c4b14610cdb578063dec0af6a14610ca7578063e963971514610c7e578063e9a8f48414610b62578063ee22fd6f14610ac0578063ef44920d14610a97578063f0c9738e14610a71578063f0f44260146109e6578063f197ce35146105d3578063f7d2401a1461050c578063f8c8765e146102945763f98d06f01461026657600080fd5b3461028f57600036600319011261028f576039546040516001600160a01b039091168152602090f35b600080fd5b3461028f57608036600319011261028f576102ad612d35565b6102b5612d4b565b6102bd612d61565b606435906001600160a01b038216820361028f576000549360ff8560081c1615948580966104ff575b80156104e8575b1561048c5760ff1981166001176000558561047a575b506040516301ffc9a760e01b8152637965db0b60e01b60048201526001600160a01b03919091169390602081602481885afa90811561046e5760009161043f575b501561042d57603380546001600160a01b031990811690951790556034805485166001600160a01b0392831617905560428054909416911617909155610389906143cb565b6000549060ff8260081c16156103d45761039f57005b61ff0019166000557f7f26b83ff96e1f2b6a682f133852f6798a09c465da95921460cefb3847402498602060405160018152a1005b60405162461bcd60e51b815260206004820152602b60248201527f496e697469616c697a61626c653a20636f6e7472616374206973206e6f74206960448201526a6e697469616c697a696e6760a81b6064820152608490fd5b60405163044aa57560e41b8152600490fd5b610461915060203d602011610467575b6104598183612e02565b810190612f83565b86610344565b503d61044f565b6040513d6000823e3d90fd5b61ffff19166101011760005585610303565b60405162461bcd60e51b815260206004820152602e60248201527f496e697469616c697a61626c653a20636f6e747261637420697320616c72656160448201526d191e481a5b9a5d1a585b1a5e995960921b6064820152608490fd5b50303b1580156102ed5750600160ff8216146102ed565b50600160ff8216106102e6565b3461028f57602036600319011261028f576004356044602060018060a01b036033541660405192838092632474521560e21b825260008051602061456a83398151915260048301523360248301525afa90811561046e576000916105b4575b50156105a2576020817fe588a2371c46c5565aa8f0737ea1b716d8518750afaa9a930c8df8877d8746c492604655604051908152a1005b60405163036be76f60e61b8152600490fd5b6105cd915060203d602011610467576104598183612e02565b8261056b565b6105dc36612ce5565b928383036109d457349360005b8181106106725785806105f857005b60008060018060a01b0360435416602093604051906106178683612e02565b83825285820191601f19870136843751925af1903d1561066c5760003d9161063e83612ff3565b9261064c6040519485612e02565b83523d92013e5b1561065a57005b60405163c71509d160e01b8152600490fd5b50610653565b61067d818386612f9b565b35610791576039546106bf966001600160a01b03909116919060206106a38389886132e1565b60405163d47eed4560e01b81529a8b928392906004840161343a565b0381865afa97881561046e5760009861075b575b5080881161074a57876106e59161300e565b966106f18288876132e1565b9093803b1561028f57604051631df3cbc560e31b81529460009386938492839161071e916004840161343a565b03925af191821561046e57600192610739575b505b016105e9565b600061074491612e02565b87610731565b604051624726cd60e11b8152600490fd5b90976020823d8211610789575b8161077560209383612e02565b8101031261078657505196886106d3565b80fd5b3d9150610768565b600161079e828487612f9b565b35036108db57603f546001600160a01b0316906107bc8187866132e1565b156108c5576107f9926107d1826000936130ba565b83604093929351809781958294632ce81dbd60e21b84526020600485015260248401916130ec565b03925af1801561046e57610811575b60019150610733565b3d806000843e6108218184612e02565b82019160208184031261028f578051906001600160401b03821161028f570160608184031261028f576040519061085782612db1565b80516001600160401b03811161028f57846108739183016133dd565b825260208101516001600160401b03811161028f57846108949183016133dd565b60208301526040810151906001600160401b03821161028f576001946040926108bd92016133dd565b910152610808565b634e487b7160e01b600052603260045260246000fd5b60026108e8828487612f9b565b35146108f7575b600190610733565b926000959192955b61090a8587896132e1565b90508110156109c7576044546001600160a01b031661092a86888a6132e1565b6000908410156109b35750829161094c6000926109769560051b8101906130ba565b6040516340bd1a9f60e01b81526020600482015295869392849286928492909160248401916130ec565b03925af191821561046e57600192610990575b50016108ff565b6109ac903d806000833e6109a48183612e02565b81019061335a565b5088610989565b634e487b7160e01b81526032600452602490fd5b50909490929091906108ef565b60405163554a08d160e11b8152600490fd5b3461028f57602036600319011261028f576109ff612d35565b603354604051632474521560e21b81526000600482015233602482015290602090829060449082906001600160a01b03165afa90811561046e57600091610a52575b50156105a257610a50906143cb565b005b610a6b915060203d602011610467576104598183612e02565b82610a41565b3461028f57600036600319011261028f57602060018060a01b0360405416604051908152f35b3461028f57600036600319011261028f57603f546040516001600160a01b039091168152602090f35b3461028f57602036600319011261028f57610ad9612d35565b603354604051632474521560e21b81526000600482015233602482015290602090829060449082906001600160a01b03165afa90811561046e57600091610b43575b50156105a257603980546001600160a01b0319166001600160a01b0392909216919091179055005b610b5c915060203d602011610467576104598183612e02565b82610b1b565b3461028f57610b7036612ce5565b603354604051632474521560e21b815260008051602061456a833981519152600482015233602482015291949190602090829060449082906001600160a01b03165afa90811561046e57600091610c5f575b50156105a2578383036109d45760005b838110610bdb57005b80610be96001928786612f9b565b35828060a01b03610c03610bfe848988612f9b565b612fab565b16600052603c602052604060002055610c20610bfe828786612f9b565b610c2b828887612f9b565b3590838060a01b03167f5f0ac2c1d339aa71cfd244b1806061c2dd58c142319c355a4b503464f39f0ce5600080a301610bd2565b610c78915060203d602011610467576104598183612e02565b85610bc2565b3461028f57600036600319011261028f576044546040516001600160a01b039091168152602090f35b3461028f57602036600319011261028f57600435600052603d602052602060018060a01b0360406000205416604051908152f35b3461028f57610ce936612ce5565b603354604051632474521560e21b815260008051602061456a833981519152600482015233602482015291929190602090829060449082906001600160a01b03165afa90811561046e57600091610df6575b50156105a2578183036109d45760005b838110610d5457005b80610d65610bfe6001938686612f9b565b828060a01b03610d79610bfe84898b612f9b565b16600052603b602052604060002090838060a01b03166001600160601b0360a01b825416179055610dae610bfe828789612f9b565b828060a01b03610dc2610bfe848888612f9b565b1690838060a01b03167fe57bb0967c057cc1250686db6226a32119cd5417ae09e1905b8f844499880fe2600080a301610d4b565b610e0f915060203d602011610467576104598183612e02565b85610d3b565b3461028f57610e2336612f49565b603354604051632474521560e21b815260008051602061456a833981519152600482015233602482015291929190602090829060449082906001600160a01b03165afa90811561046e57600091610eb5575b50156105a25781151580610ea4575b15610e9257610a5092614325565b604051633c15d6ff60e21b8152600490fd5b50670de0b6b3a76400008210610e84565b610ece915060203d602011610467576104598183612e02565b84610e75565b3461028f57600036600319011261028f576020604654604051908152f35b3461028f57610f0036612f49565b603354604051632474521560e21b81527f5c91514091af31f62f596a314af7d5be40146b2f2355969392f055e12e0982fb600482015233602482015291929190602090829060449082906001600160a01b03165afa90811561046e57600091610fb7575b50156105a2576001600160a01b03838116600090815260366020908152604080832093851683529290522054821180610fa55715610e9257610a5092614325565b506706f05b59d3b20000821115610e84565b610fd0915060203d602011610467576104598183612e02565b84610f64565b3461028f57602036600319011261028f576004356001600160401b03811161028f573660238201121561028f578060040135906001600160401b03821161028f576024810190602436916060850201011161028f57603354604051632474521560e21b815260008051602061458a833981519152600482015233602482015290602090829060449082906001600160a01b03165afa90811561046e576000916110d2575b50156105a25760005b82811061108c57005b806110cc6110a0610bfe60019487876132b1565b6110b660206110b08589896132b1565b01612fab565b6110c660406110b0868a8a6132b1565b916142b0565b01611083565b6110eb915060203d602011610467576104598183612e02565b8361107a565b3461028f57602036600319011261028f576004356001600160401b03811161028f57611121903690600401612cb5565b603354604051632474521560e21b815260008051602061456a833981519152600482015233602482015290602090829060449082906001600160a01b03165afa90811561046e5760009161138d575b50156105a257906000915b80831061118457005b611198611192848385613098565b806130ba565b93906001600160a01b036111b260206110b0858789613098565b1660005260496020526040806000206111d0826110b086888a613098565b6001600160a01b0316600090815260209190915220906001600160401b038611611377576111fe8254612d77565b601f811161132f575b50600090601f87116001146112c75795809160019596976000926112bc575b5050600019600383901b1c191690841b1790555b61124a60206110b0838688613098565b61125a60406110b0848789613098565b7f4dbaefd1a2b997bf0a063a0ad7e482d970c424dc4a8b9fdb33669e9d1c9ad69861128961119285888a613098565b926112b160405192839260208452898060a01b031696898060a01b03169560208401916130ec565b0390a301919061117b565b013590508780611226565b8282526020822091601f198816815b8181106113175750916001969798929183889593106112fd575b505050811b01905561123a565b0135600019600384901b60f8161c191690558780806112f0565b838301358555600190940193602092830192016112d6565b826000526020600020601f880160051c8101916020891061136d575b601f0160051c01905b8181106113615750611207565b60008155600101611354565b909150819061134b565b634e487b7160e01b600052604160045260246000fd5b6113a6915060203d602011610467576104598183612e02565b83611170565b3461028f57602036600319011261028f576113c5612d35565b603354604051632474521560e21b81526000600482015233602482015290602090829060449082906001600160a01b03165afa90811561046e5760009161142f575b50156105a257604780546001600160a01b0319166001600160a01b0392909216919091179055005b611448915060203d602011610467576104598183612e02565b82611407565b3461028f57602036600319011261028f57611467612d35565b603354604051632474521560e21b815260008051602061458a833981519152600482015233602482015290602090829060449082906001600160a01b03165afa90811561046e57600091611508575b50156105a257603580546001600160a01b0319166001600160a01b0390921691821790556040519081527f5689afd64620ca3aba1015be2907df3b5ae25149d96691ba3de19f92e96ec14d90602090a1005b611521915060203d602011610467576104598183612e02565b826114b6565b3461028f57602036600319011261028f576001600160a01b03611548612d35565b16600052603c6020526020604060002054604051908152f35b3461028f57604036600319011261028f5761157a612d35565b611582612d4b565b906001600160a01b0390811690821681146115df5760009081526037602090815260408083206001600160a01b0394851684529091529020541680156115cd57602090604051908152f35b604051636ae912f160e11b8152600490fd5b60405163b213646160e01b8152600490fd5b3461028f57602036600319011261028f576001600160a01b03611612612d35565b16600052603b602052602060018060a01b0360406000205416604051908152f35b3461028f57606036600319011261028f5761164c612d35565b611654612d4b565b61165c612d61565b603354604051632474521560e21b815260008051602061458a833981519152600482015233602482015291929190602090829060449082906001600160a01b03165afa90811561046e576000916116bd575b50156105a257610a50926142b0565b6116d6915060203d602011610467576104598183612e02565b846116ae565b3461028f57602036600319011261028f576116f5612d35565b603354604051632474521560e21b81526000600482015233602482015290602090829060449082906001600160a01b03165afa90811561046e5760009161175f575b50156105a257603f80546001600160a01b0319166001600160a01b0392909216919091179055005b611778915060203d602011610467576104598183612e02565b82611737565b3461028f57604036600319011261028f5760206117aa61179c612d35565b6117a4612d4b565b906131a5565b604051908152f35b3461028f57602036600319011261028f576004356044602060018060a01b036033541660405192838092632474521560e21b825260008051602061456a83398151915260048301523360248301525afa90811561046e57600091611848575b50156105a2576020817f13c9323fdd8bdc59bca744cb04a1255896c91de5ebfd82b75e0040ffd672a2ec92603a55604051908152a1005b611861915060203d602011610467576104598183612e02565b82611811565b3461028f57600036600319011261028f576048546040516001600160a01b039091168152602090f35b3461028f57600036600319011261028f576034546040516001600160a01b039091168152602090f35b3461028f57606036600319011261028f576118d2612d4b565b6118da612d61565b90600435600052603e60205260406000209060018060a01b031660005260205260406000209060018060a01b0316600052602052602060ff604060002054166040519015158152f35b3461028f57600036600319011261028f576033546040516001600160a01b039091168152602090f35b3461028f57604036600319011261028f5760206117aa61196a612d35565b611972612d4b565b9061310d565b3461028f57600036600319011261028f576043546040516001600160a01b039091168152602090f35b3461028f57602036600319011261028f576119ba612d35565b603354604051632474521560e21b81526000600482015233602482015290602090829060449082906001600160a01b03165afa90811561046e57600091611a24575b50156105a257604080546001600160a01b0319166001600160a01b0392909216919091179055005b611a3d915060203d602011610467576104598183612e02565b826119fc565b3461028f57602036600319011261028f576004356001600160401b03811161028f57611a73903690600401612f0f565b603354604051632474521560e21b815260008051602061456a833981519152600482015233602482015290602090829060449082906001600160a01b03165afa90811561046e57600091611c3c575b50156105a25760005b818110611ad457005b80611b5d611af06060611aea6001958789612fbf565b01612fcf565b611afb838688612fbf565b35600052603e60205260408080600020611b1b60206110b0888b8d612fbf565b90600091888060a01b0316825260205220611b3b826110b0878a8c612fbf565b90600091878060a01b03168252602052209060ff801983541691151516179055565b611bbb611b706060611aea848789612fbf565b611b7b838688612fbf565b35600052603e60205260408080600020611b9a826110b0888b8d612fbf565b90600091888060a01b0316825260205220611b3b60206110b0878a8c612fbf565b611bc6818486612fbf565b35611bd760206110b0848789612fbf565b90611be860406110b085888a612fbf565b907fb9a3049feba6628f1f03d582f4092ed3d7b923b1e9b3e115ac55f7fd2d78198f6020611c1c6060611aea888b8d612fbf565b936040519415158552878060a01b031694878060a01b031693a401611acb565b611c55915060203d602011610467576104598183612e02565b83611ac2565b3461028f57602036600319011261028f57611c74612d35565b603354604051632474521560e21b81526000600482015233602482015290602090829060449082906001600160a01b03165afa90811561046e57600091611cde575b50156105a257604480546001600160a01b0319166001600160a01b0392909216919091179055005b611cf7915060203d602011610467576104598183612e02565b82611cb6565b3461028f57604036600319011261028f57611d16612d35565b611d1e612d4b565b9060018060a01b0316600052604560205260406000209060018060a01b0316600052602052611d67611d536040600020612e23565b604051918291602083526020830190612eea565b0390f35b3461028f57602036600319011261028f57600435600381101561028f57611d9181612f3f565b600052604a602052602060018060a01b0360406000205416604051908152f35b3461028f57602036600319011261028f576004356001600160401b03811161028f57611de1903690600401612cb5565b603354604051632474521560e21b815260008051602061456a833981519152600482015233602482015290602090829060449082906001600160a01b03165afa90811561046e57600091612031575b50156105a257906000915b808310611e4457005b611e52611192848385613098565b93906001600160a01b03611e6c60206110b0858789613098565b166000526045602052604080600020611e8a826110b086888a613098565b6001600160a01b0316600090815260209190915220906001600160401b03861161137757611eb88254612d77565b601f8111611fe9575b50600090601f8711600114611f81579580916001959697600092611f76575b5050600019600383901b1c191690841b1790555b611f0460206110b0838688613098565b611f1460406110b0848789613098565b7f6d9aa9fead4615c8c7f606f3037bd4acd950dcbd5676999b5923de04025da9a8611f4361119285888a613098565b92611f6b60405192839260208452898060a01b031696898060a01b03169560208401916130ec565b0390a3019190611e3b565b013590508780611ee0565b8282526020822091601f198816815b818110611fd1575091600196979892918388959310611fb7575b505050811b019055611ef4565b0135600019600384901b60f8161c19169055878080611faa565b83830135855560019094019360209283019201611f90565b826000526020600020601f880160051c81019160208910612027575b601f0160051c01905b81811061201b5750611ec1565b6000815560010161200e565b9091508190612005565b61204a915060203d602011610467576104598183612e02565b83611e30565b3461028f57602036600319011261028f57612069612d35565b603354604051632474521560e21b81526000600482015233602482015290602090829060449082906001600160a01b03165afa90811561046e576000916120d3575b50156105a257604280546001600160a01b0319166001600160a01b0392909216919091179055005b6120ec915060203d602011610467576104598183612e02565b826120ab565b3461028f57604036600319011261028f5761210b612d35565b612113612d4b565b6001600160a01b039182166000908152603660209081526040808320949093168252928352819020549051908152f35b3461028f57600036600319011261028f576035546001600160a01b0316600081612173575b602090604051908152f35b5060a060049160405192838092633fabe5a360e21b82525afa801561046e576020916000916121a3575b50612168565b6121c5915060a03d60a0116121d0575b6121bd8183612e02565b810190613063565b50505090508261219d565b503d6121b3565b606036600319011261028f576121eb612d35565b6121f3612d4b565b906044356001600160401b03811161028f573660238201121561028f5780600401356001600160401b03811161028f57810190602482019036821161028f5760208184031261028f576024810135906001600160401b03821161028f5701908060438301121561028f5760248201359161226c83612fdc565b9361227a6040519586612e02565b8385526020850160206024829660051b850101019284841161028f5760448101915b84831061258c5750505050505081518015159081612581575b501561256f5781516000198101908111612559576001600160a01b03906122dc908461302b565b5151166001600160a01b03851603612547576003825114612517575b600482511461247e575b50819291670de0b6b3a7640000926000936000925b845184101561247357612336602061232f868861302b565b510161303f565b600781101561245d5760021480612455575b612417575b6123629061235b858761302b565b51906135c8565b9060009180159182156123f7575b5050156123e6576706f05b59d3b2000081019060008282116123d2575081106123c157670de0b6b3a764000090049460016001600160a01b036123b3858761302b565b515116930192959095612317565b630a77254f60e01b60005260046000fd5b634e487b7160e01b81526011600452602490fd5b631550e8b760e01b60005260046000fd5b9150915061240f6124088383613192565b92836132c1565b148780612370565b9450612422866134cc565b80612446575b6124345760019461234d565b604051630efbb43d60e21b8152600490fd5b50612450826134cc565b612428565b508515612348565b634e487b7160e01b600052602160045260246000fd5b602082604051908152f35b60206124898361301b565b510151600781101561245d576002600091141591826124c2575b5050156124b05783612302565b60405163980171a360e01b8152600490fd5b8351919250901561250357516124da9060200161303f565b9060078210156124ef575060021484806124a3565b634e487b7160e01b81526021600452602490fd5b634e487b7160e01b82526032600452602482fd5b60206125228361301b565b510151600781101561245d576002036122f85760405163980171a360e01b8152600490fd5b6040516309bf411560e11b8152600490fd5b634e487b7160e01b600052601160045260246000fd5b60405163308c6ea760e21b8152600490fd5b6005915010856122b5565b82356001600160401b03811161028f5782016024810191906060908603601f19011261028f57604051916125bf83612db1565b60208101356001600160a01b038116810361028f5783526040810135600781101561028f57602084015260608101356001600160401b03811161028f5760209101019087601f8301121561028f5781359261261984612ff3565b6126266040519182612e02565b848152896020868601011161028f5760006020868197828098018386013783010152604082015281520192019161229c565b3461028f57602036600319011261028f576004356001600160401b03811161028f57612688903690600401612f0f565b603354604051632474521560e21b815260008051602061456a833981519152600482015233602482015290602090829060449082906001600160a01b03165afa90811561046e576000916127d4575b50156105a25760005b8181106126e957005b806127666126fa6001938587612fbf565b838060a01b0361270e610bfe85888a612fbf565b16600052604160205283612753606060408961273460206110b08a8d8660002095612fbf565b90600091868060a01b0316825260205220936040810135855501612fcf565b91019060ff801983541691151516179055565b612774610bfe828587612fbf565b61278460206110b0848789612fbf565b7fa38bfa44bbba9266438e9ec2c9f2001eb6517aa484626b25ec296ee888517f79602060406127b486898b612fbf565b013592604051938452868060a01b031693868060a01b031692a3016126e0565b6127ed915060203d602011610467576104598183612e02565b836126d7565b3461028f57600036600319011261028f576042546040516001600160a01b039091168152602090f35b3461028f57602036600319011261028f57612835612d35565b603354604051632474521560e21b81526000600482015233602482015290602090829060449082906001600160a01b03165afa90811561046e5760009161289f575b50156105a257604880546001600160a01b0319166001600160a01b0392909216919091179055005b6128b8915060203d602011610467576104598183612e02565b82612877565b3461028f57604036600319011261028f576128d7612d35565b6128df612d4b565b9060018060a01b0316600052604960205260406000209060018060a01b0316600052602052611d67611d536040600020612e23565b3461028f57600036600319011261028f576035546040516001600160a01b039091168152602090f35b3461028f57600036600319011261028f576047546040516001600160a01b039091168152602090f35b3461028f57600036600319011261028f576020603a54604051908152f35b3461028f57604036600319011261028f5761299d612d35565b6129a5612d4b565b9060018060a01b0316600052604160205260406000209060018060a01b031660005260205260408060002060ff6001825492015416825191825215156020820152f35b3461028f576129f636612ce5565b603354604051632474521560e21b815260008051602061456a833981519152600482015233602482015293949391929190602090829060449082906001600160a01b03165afa90811561046e57600091612af4575b50156105a2578184036109d45760005b848110612a6457005b80612a75610bfe6001938686612f9b565b612a80828888612f9b565b35600052603d602052604060002090838060a01b03166001600160601b0360a01b825416179055612ab2818787612f9b565b35828060a01b03612ac7610bfe848888612f9b565b16907f23e0d9edcf44c0ab085e4918b7030577f9da7dd0c7869257b4598f9e7ff59eff600080a301612a5b565b612b0d915060203d602011610467576104598183612e02565b85612a4b565b3461028f57612b2136612ce5565b603354604051632474521560e21b815260008051602061458a83398151915260048201523360248201529194939190602090829060449082906001600160a01b03165afa90811561046e57600091612c43575b50156105a2578381036109d45760005b818110612b8d57005b612b9b610bfe828786612f9b565b612ba6828487612f9b565b35600381101561028f57612bb981612f3f565b600052604a60205260406000209060018060a01b03166001600160601b0360a01b825416179055612beb818386612f9b565b3590600382101561028f57600191612c07610bfe838988612f9b565b612c1082612f3f565b838060a01b0316907fe6574ff52bd4d3e89a140bba3bd969bfa5aad8116f46d1bce8d214e3229b9b0c600080a301612b84565b612c5c915060203d602011610467576104598183612e02565b85612b74565b3461028f57602036600319011261028f576004359063ffffffff60e01b821680920361028f576020916333ca6d2360e21b8114908115612ca4575b5015158152f35b6301ffc9a760e01b14905083612c9d565b9181601f8401121561028f578235916001600160401b03831161028f576020808501948460051b01011161028f57565b604060031982011261028f576004356001600160401b03811161028f5781612d0f91600401612cb5565b92909291602435906001600160401b03821161028f57612d3191600401612cb5565b9091565b600435906001600160a01b038216820361028f57565b602435906001600160a01b038216820361028f57565b604435906001600160a01b038216820361028f57565b90600182811c92168015612da7575b6020831014612d9157565b634e487b7160e01b600052602260045260246000fd5b91607f1691612d86565b606081019081106001600160401b0382111761137757604052565b608081019081106001600160401b0382111761137757604052565b604081019081106001600160401b0382111761137757604052565b90601f801991011681019081106001600160401b0382111761137757604052565b9060405191826000825492612e3784612d77565b8084529360018116908115612ea55750600114612e5e575b50612e5c92500383612e02565b565b90506000929192526020600020906000915b818310612e89575050906020612e5c9282010138612e4f565b6020919350806001915483858901015201910190918492612e70565b905060209250612e5c94915060ff191682840152151560051b82010138612e4f565b60005b838110612eda5750506000910152565b8181015183820152602001612eca565b90602091612f0381518092818552858086019101612ec7565b601f01601f1916010190565b9181601f8401121561028f578235916001600160401b03831161028f576020808501948460071b01011161028f57565b6003111561245d57565b606090600319011261028f576004356001600160a01b038116810361028f57906024356001600160a01b038116810361028f579060443590565b9081602091031261028f5751801515810361028f5790565b91908110156108c55760051b0190565b356001600160a01b038116810361028f5790565b91908110156108c55760071b0190565b35801515810361028f5790565b6001600160401b0381116113775760051b60200190565b6001600160401b03811161137757601f01601f191660200190565b9190820391821161255957565b8051600110156108c55760400190565b80518210156108c55760209160051b010190565b51600781101561245d5790565b519069ffffffffffffffffffff8216820361028f57565b908160a091031261028f576130778161304c565b9160208201519160408101519161309560806060840151930161304c565b90565b91908110156108c55760051b81013590605e198136030182121561028f570190565b903590601e198136030182121561028f57018035906001600160401b03821161028f5760200191813603831361028f57565b908060209392818452848401376000828201840152601f01601f1916010190565b9061311881836131a5565b9160018060a01b0316600052603660205260406000209060018060a01b03166000526020526040600020549080821160001461316f57505b670de0b6b3a764000081116131625790565b50670de0b6b3a764000090565b9050613150565b519060ff8216820361028f57565b604d811161255957600a0a90565b8181029291811591840414171561255957565b6001600160a01b039081166000908152603760209081526040808320948416835293905291909120541680156132ab57604051633fabe5a360e21b81529060a082600481845afa91821561046e5760009261327f575b5060206004916040519283809263313ce56760e01b82525afa801561046e57600090613245575b60ff91501660120390601282116125595761323f61309592613184565b90613192565b506020813d602011613277575b8161325f60209383612e02565b8101031261028f5761327260ff91613176565b613222565b3d9150613252565b600491925061329e60209160a03d60a0116121d0576121bd8183612e02565b50505090509291506131fb565b50600090565b91908110156108c5576060020190565b81156132cb570490565b634e487b7160e01b600052601260045260246000fd5b91908110156108c55760051b81013590601e198136030182121561028f5701908135916001600160401b03831161028f576020018260051b3603811361028f579190565b9092919261333281612ff3565b916133406040519384612e02565b82948284528282011161028f576020612e5c930190612ec7565b60208183031261028f578051906001600160401b03821161028f57019060808282031261028f576040519161338e83612dcc565b80516001600160401b03811161028f57810182601f8201121561028f576060928160206133bd93519101613325565b835260208101516020840152604081015160408401520151606082015290565b9080601f8301121561028f5781516133f481612fdc565b926134026040519485612e02565b81845260208085019260051b82010192831161028f57602001905b82821061342a5750505090565b815181526020918201910161341d565b9180602084016020855252604083019060408160051b8501019383600091601e1982360301905b848410613472575050505050505090565b90919293949596603f1982820301875287358381121561028f57840190602082359201916001600160401b03811161028f57803603831361028f576134bd60209283926001956130ec565b99019701959401929190613461565b6001600160a01b03166000818152603c6020526040902054613564576000818152603b60205260409020546001600160a01b031661356457806000526041602052604060002061034860005260205260ff600160406000200154166135645760009081526041602090815260408083206042546001600160a01b0316845290915290206001015460ff1661355f57600090565b600190565b50600190565b9081608091031261028f5760606040519161358483612dcc565b8051835260208101516020840152604081015160408401520151606082015290565b60ff166012039060ff821161255957565b60ff16604d811161255957600a0a90565b602082018051926001600160a01b03831692909161034884149190600786101561245d57600095156141505780516007811015613bbc57600314613f585780516007811015613bbc57600114613d745780516007811015613bbc57600414613bd05780516007811015613bbc576005146139f3575160078110156139df5760061461377257505060408101519160208351930151926020811061375c575b50828452603d60205260408420546001600160a01b031692831561374a578452603e60209081526040808620838752825280862084516001600160a01b0316875290915284205460ff1615613738579051604051635d5530df60e11b815260048101929092526001600160a01b03166024820152906020908290604490829086905af191821561372c5780926136fb57505090565b9091506020823d602011613724575b8161371760209383612e02565b8101031261078657505190565b3d915061370a565b604051903d90823e3d90fd5b604051632ccb516160e21b8152600490fd5b6040516345f68a8f60e11b8152600490fd5b6000939193199060200360031b1b169138613666565b908092949350156139b8575b6040840151938451850190604086602084019303126139b4576020860151956040810151906001600160401b0382116139b057019582603f880112156139ac576020870151926137cd84612fdc565b976137db604051998a612e02565b84895260208901602080829760051b84010101918383116139a85760408101915b83831061396257505050505061381181612f3f565b61381a81612f3f565b8552604a60205260408520546001600160a01b031692831561374a5784156139585750516001600160a01b03169490915b604080516313f839b960e01b81526001600160a01b0390971660048801526024870152905160448601819052600581901b86016064908101938793928792839086015b828210613926575050505082908160209503925af192831561391b5782936138e3575b50156138df5750613095906138da6138d0670de0b6b3a7640000614519565b8260011c90614555565b6132c1565b5090565b9092506020813d602011613913575b816138ff60209383612e02565b8101031261390f575191386138b1565b5080fd5b3d91506138f2565b6040513d84823e3d90fd5b929550925092946020806139466001936063198d82030186528851612eea565b9601920192019288949593889361388e565b905094909161384b565b82516001600160401b0381116139a45760209083010185603f820112156139a4576020916139998783604086809601519101613325565b8152019201916137fc565b8b80fd5b8980fd5b8580fd5b8680fd5b8480fd5b83516001600160a01b031661034719011561377e576040516386170b0d60e01b8152600490fd5b634e487b7160e01b86526021600452602486fd5b50505060408193929301519260a084805181010312613bb857602084015190604085015194606081015191613a2f60a060808401519301613176565b81875260496020908152604080892088516001600160a01b03168a529091528720909290613a5c90612e23565b918796835115613b67575b5050604754604854604051639c88171560e01b81526001600160a01b03918216600482015260e060248201529560209587959290931693859384938d9360ff9391613ab69060e4880190612eea565b948c60448801526064870152608486015260a48501521660c483015203915afa908115613b5c578491613b3d575b5015613b2b57613af6603a544261300e565b11613b1957156138df5750613095906138da6138d0670de0b6b3a7640000614519565b60405163141f934360e31b8152600490fd5b6040516318f57d1360e21b8152600490fd5b613b56915060203d602011610467576104598183612e02565b38613ae4565b6040513d86823e3d90fd5b516001600160a01b03168852604960209081526040808a20928a529190528720909550613b949150612e23565b805115613ba657600194816020613a67565b604051638d55073560e01b8152600490fd5b8280fd5b634e487b7160e01b87526021600452602487fd5b50505081835260456020908152604080852083516001600160a01b0316865290915283208390613bff90612e23565b8192815115613d21575b50613c3d935060018060a01b0360445416604051808096819463b50584b360e01b8352602060048401526024830190612eea565b03915afa918215613d16578392613cfa575b506020820190815115613ce8576060830151613c6d6046544261300e565b11613b195715613cc4576040905191015160120360128111613cb057613095929161323f613c9a92613184565b90506138da6138d0670de0b6b3a7640000614519565b634e487b7160e01b83526011600452602483fd5b6040909291925192015160120390601282116123d257509061323f61309592613184565b6040516305a22a3360e11b8152600490fd5b613d0f9192503d8085833e6109a48183612e02565b9038613c4f565b6040513d85823e3d90fd5b516001600160a01b031685525050604560209081526040808520938552929052508120613d4d90612e23565b805115613d6257613c3d908260019138613c09565b60405163dde5170160e01b8152600490fd5b509080935015613f31575b8215613f2a5750516001600160a01b03165b6001600160a01b039081168352603b602052604083205416801561374a57604051633fabe5a360e21b81529160a083600481855afa928315613b5c578493613f04575b5083831315613ef25715613e6f5760206004916040519283809263313ce56760e01b82525afa908115613d16578391613e22575b50613095929161323f613e1d613c9a936135a6565b6135b7565b90506020813d602011613e67575b81613e3d60209383612e02565b81010312613bb857613095929161323f613e1d613e5c613c9a94613176565b935050509192613e08565b3d9150613e30565b60206004916040949394519283809263313ce56760e01b82525afa91821561372c578092613eaa575b50509061323f613e1d613095936135a6565b9091506020823d602011613eea575b81613ec660209383612e02565b8101031261078657509061323f613e1d613ee261309594613176565b929350613e98565b3d9150613eb9565b6040516302eb41cf60e51b8152600490fd5b613f1e91935060a03d60a0116121d0576121bd8183612e02565b50505090509138613dd4565b9050613d91565b81516001600160a01b0316610347190115613d7f576040516381c30d7b60e01b8152600490fd5b50505081835260416020908152604080852083516001600160a01b03168652909152808420905192919060ff90600190613f9186612de7565b80548652015416151560208401908152604051613fad81612dcc565b85815260208101869052604081018690526060018590525115614073575050608060018060a01b036040541691516024604051809481936344dca75160e11b835260048301525afa90811561391b578291614044575b5080916020606083015192015160120390601282116123d2575060409161323f61402c92613184565b915b015161403c603a544261300e565b11613b195790565b614066915060803d60801161406c575b61405e8183612e02565b81019061356a565b38614003565b503d614054565b516001600160a01b03168352604160209081526040808520928552919052808320905192915060ff906001906140a885612de7565b80548552015416158015602084015261374a57608060018060a01b036040541692516024604051809581936344dca75160e11b835260048301525afa918215614143578192614122575b50816020606082015191015160120360128111613cb05791613c9a61411c9261323f604095613184565b9161402e565b61413c91925060803d60801161406c5761405e8183612e02565b90386140f2565b50604051903d90823e3d90fd5b50908094935015614289575b83156142825750516001600160a01b03165b6001600160a01b03168152603c602052604081205491821561374a576039546040516331d98b3f60e01b81526004810194909452608090849060249082906001600160a01b03165afa92831561391b5782936141f7575b5060608301516141d7603a544261300e565b11613b1957156141ed57613c9a61309592614458565b5061309590614458565b9092506080813d60801161427a575b8161421360809383612e02565b8101031261390f576040519061422882612dcc565b80518060070b810361427657825260208101516001600160401b038116810361427657602083015260408101518060030b8103614276579060609160408401520151606082015291386141c5565b8380fd5b3d9150614206565b905061416e565b81516001600160a01b031661034719011561415c57604051633c2f4f2360e21b8152600490fd5b6001600160a01b03908116929116908282146115df576000838152603760209081526040808320858452909152812080546001600160a01b0319166001600160a01b039390931692831790559092907f410d79a2eddf639a562ae356290f947311e7c951e05ee1e957f18898bd664bb39080a4565b6001600160a01b031690811515806143b9575b156143a7576001600160a01b0316918183146143955760207ffc6e73fcfea315539ce6038e373ebf76c8fd5169e820723ef2d2f4485528ced8918360005260368252604060002085600052825280604060002055604051908152a3565b604051631d8fdb5560e11b8152600490fd5b604051630803ae7360e11b8152600490fd5b506001600160a01b0381161515614338565b6040516301ffc9a760e01b81526329abf30760e11b60048201526001600160a01b039190911690602081602481855afa90811561046e57600091614425575b501561042d576001600160601b0360a01b6043541617604355565b61443e915060203d602011610467576104598183612e02565b3861440a565b63ffffffff16604d811161255957600a0a90565b6000815160070b128015614508575b80156144f6575b6144e457604081015160030b600003808060030b036125595760ff1690601282116144b6579061323f60ff6144b06001600160401b03613095955116936135a6565b16614444565b51601119909101906001600160401b031660ff8211612559576144de60ff6130959316614444565b906132c1565b6040516365a5785160e11b8152600490fd5b5060fe19604082015160030b1261446e565b506000604082015160030b13614467565b90600091670de0b6b3a76400008082028281048214831517156145415780945004036123e657565b634e487b7160e01b85526011600452602485fd5b91908201918281116125595782106123c15756fe5a7d4408f4759dddd7fdfd0d21abd99341dc2f52cda14804988a9b2df20766d8c0fc8e4dc5cff6febdf550b80d566f654e2baf1a02ea1060208c2f8ab2dd1b63a2646970667358221220c9040b00318adf780c134a88b257bc418661ff7ad8bf00b9656cb1bd56c53f8a64736f6c634300081a0033",
  "libraries": {
    "Errors": "0xaA5747e7aC2a5f9d29fAaBde8f9Bfd2Dc7b1B6ed"
  },
  "devdoc": {
    "events": {
      "Initialized(uint8)": {
        "details": "Triggered when the contract has been initialized or reinitialized."
      }
    },
    "kind": "dev",
    "methods": {
      "getExchangeRate(address,address,bytes)": {
        "params": {
          "assetA": "The address of the first asset in the pair.",
          "assetB": "The address of the second asset in the pair.",
          "oracleData": "The list of oracles to use for price calculations"
        },
        "returns": {
          "_0": "exchangeRate for assetA/assetB in 10**18 decimality"
        }
      },
      "getGasPrice()": {
        "returns": {
          "price": "The current gas price."
        }
      },
      "getOraclePriceDrop(address,address)": {
        "params": {
          "assetA": "The address of the first asset.",
          "assetB": "The address of the second asset."
        },
        "returns": {
          "_0": "The priceDrop rate as a uint256 value."
        }
      },
      "getOraclePriceDropFeed(address,address)": {
        "params": {
          "assetA": "The address of the first asset in the pair.",
          "assetB": "The address of the second asset in the pair."
        },
        "returns": {
          "_0": "priceDropFeed The address of the priceDrop feed associated with the asset pair."
        }
      },
      "getPairPriceDrop(address,address)": {
        "params": {
          "_assetA": "The address of asset A.",
          "_assetB": "The address of asset B."
        },
        "returns": {
          "priceDrop": "The priceDrop rate."
        }
      },
      "increasePairPriceDrop(address,address,uint256)": {
        "details": "Only callable by the EMERGENCY_ADMIN role. The _pairPriceDrop value must be greater than the current priceDrop value for the pair and less than the maximum allowed priceDrop (WadRayMath.WAD / 2).",
        "params": {
          "_assetA": "The address of position asset",
          "_assetB": "The address of borrowed asset",
          "_pairPriceDrop": "The new priceDrop value for the pair (in wad)"
        }
      },
      "initialize(address,address,address,address)": {
        "params": {
          "_eth": "Weth address if eth isn't native token of network. Otherwise set to zero address.",
          "_registry": "The address of PrimexRegistry contract",
          "_treasury": "Address of the Treasury",
          "_usdt": "Address of the USDT token"
        }
      },
      "setGasPriceFeed(address)": {
        "details": "Only callable by the MEDIUM_TIMELOCK_ADMIN role.",
        "params": {
          "priceFeed": "The address of the gas price feed contract."
        }
      },
      "setOrallyOracle(address)": {
        "details": "Only callable by the BIG_TIMELOCK_ADMIN role.",
        "params": {
          "_orally": "the address of the Orally oracle"
        }
      },
      "setOrallyTimeTolerance(uint256)": {
        "details": "Only callable by the SMALL_TIMELOCK_ADMIN role.",
        "params": {
          "_orallyTimeTolerance": "Time tolerance in seconds"
        }
      },
      "setPairPriceDrop(address,address,uint256)": {
        "details": "Only callable by the SMALL_TIMELOCK_ADMIN.",
        "params": {
          "_assetA": "The address of position asset",
          "_assetB": "The address of borrowed asset",
          "_pairPriceDrop": "The pair priceDrop (in wad)"
        }
      },
      "setPyth(address)": {
        "details": "Only callable by the BIG_TIMELOCK_ADMIN role.",
        "params": {
          "_pyth": "the address of the Pyth oracle"
        }
      },
      "setStorkPublicKey(address)": {
        "details": "Only callable by the BIG_TIMELOCK_ADMIN role.",
        "params": {
          "_storkPublicKey": "the Stork public key address"
        }
      },
      "setStorkVerify(address)": {
        "details": "Only callable by the BIG_TIMELOCK_ADMIN role.",
        "params": {
          "_storkVerify": "the Stork verify address"
        }
      },
      "setSupraPullOracle(address)": {
        "details": "Only callable by the BIG_TIMELOCK_ADMIN role.",
        "params": {
          "_supraPullOracle": "the address of the Supra pull oracle"
        }
      },
      "setSupraStorageOracle(address)": {
        "details": "Only callable by the BIG_TIMELOCK_ADMIN role.",
        "params": {
          "_supraStorageOracle": "the address of the Supra storage"
        }
      },
      "setTimeTolerance(uint256)": {
        "details": "Only callable by the SMALL_TIMELOCK_ADMIN role.",
        "params": {
          "_timeTolerance": "Time tolerance in seconds"
        }
      },
      "setTreasury(address)": {
        "details": "Only callable by the BIG_TIMELOCK_ADMIN role.",
        "params": {
          "_treasury": "the address of the treasury"
        }
      },
      "setUSDT(address)": {
        "details": "Only callable by the BIG_TIMELOCK_ADMIN role.",
        "params": {
          "_usdt": "the address of the USDT"
        }
      },
      "supportsInterface(bytes4)": {
        "params": {
          "_interfaceId": "The interface id to check"
        }
      },
      "updateChainlinkPriceFeedsUsd(address[],address[])": {
        "details": "Only callable by the SMALL_TIMELOCK_ADMIN role.",
        "params": {
          "_feeds": "Array of price feeds.",
          "_tokens": "Array of token addresses."
        }
      },
      "updateOrallySymbols((string,address[2])[])": {
        "details": "Only callable by the SMALL_TIMELOCK_ADMIN role.",
        "params": {
          "params": "Array of UpdateOrallySymbolsParams struct"
        }
      },
      "updatePriceDropFeed(address,address,address)": {
        "details": "Add or update priceDrop feed for assets pair. Only callable by the MEDIUM_TIMELOCK_ADMIN role.",
        "params": {
          "assetA": "The address of the first asset in the pair.",
          "assetB": "The address of the second asset in the pair.",
          "priceDropFeed": "The chain link priceDrop feed address for the pair assetA/assetB"
        }
      },
      "updatePriceDropFeeds((address,address,address)[])": {
        "details": "Add or update priceDrop feed for assets pair. Only callable by the MEDIUM_TIMELOCK_ADMIN role.",
        "params": {
          "_updateParams": "The array of the UpdatePriceDropFeedsParams structs"
        }
      },
      "updatePullOracle(bytes[][],uint256[])": {
        "params": {
          "_data": "An array of update data for passed oracles",
          "_pullOracleTypes": "An array of oracle types  (Must conform to the UpdatePullOracle struct)"
        }
      },
      "updatePythPairId(address[],bytes32[])": {
        "details": "Only callable by the SMALL_TIMELOCK_ADMIN role.",
        "params": {
          "_priceFeedIds": "Array of pair ids.",
          "_tokens": "Array of token addresses."
        }
      },
      "updateStorkPairIds((string,address[2])[])": {
        "details": "Only callable by the SMALL_TIMELOCK_ADMIN role.",
        "params": {
          "params": "Array of UpdateStorkPairIdsParams struct"
        }
      },
      "updateSupraDataFeed((address,address,(uint256,bool))[])": {
        "details": "Only callable by the SMALL_TIMELOCK_ADMIN role.",
        "params": {
          "_params": "Array of token pairs and Supra ids."
        }
      },
      "updateUniv3TrustedPair((uint256,address,address,bool)[])": {
        "details": "Only callable by the SMALL_TIMELOCK_ADMIN role.",
        "params": {
          "_updateParams": "Array of token pairs, their DEXs and new trusted status."
        }
      },
      "updateUniv3TypeOracle(uint256[],address[])": {
        "details": "Only callable by the SMALL_TIMELOCK_ADMIN role.",
        "params": {
          "_oracleTypes": "Array of ids of TWAP contracts.",
          "_oracles": "Array of TWAP contract addresses."
        }
      }
    },
    "version": 1
  },
  "userdoc": {
    "kind": "user",
    "methods": {
      "getExchangeRate(address,address,bytes)": {
        "notice": "Calculates exchange rate of one token to another according to the specific oracle route"
      },
      "getGasPrice()": {
        "notice": "Retrieves the current gas price from the specified gas price feed."
      },
      "getOraclePriceDrop(address,address)": {
        "notice": "Retrieves the priceDrop rate between two assets based on the oracle pair priceDrop."
      },
      "getOraclePriceDropFeed(address,address)": {
        "notice": "Retreives a priceDrop feed address from the oraclePriceDropFeeds mapping"
      },
      "getPairPriceDrop(address,address)": {
        "notice": "For a given asset pair retrieves the priceDrop rate which is the higher of the oracle pair priceDrop and the historical pair priceDrop."
      },
      "increasePairPriceDrop(address,address,uint256)": {
        "notice": "Increases the priceDrop of a pair of assets in the system."
      },
      "setGasPriceFeed(address)": {
        "notice": "Sets the gas price feed contract address."
      },
      "setOrallyOracle(address)": {
        "notice": "Sets the orally oracle address"
      },
      "setOrallyTimeTolerance(uint256)": {
        "notice": "Sets the time tolerance specially for the orally"
      },
      "setPairPriceDrop(address,address,uint256)": {
        "notice": "Function to set (change) the pair priceDrop of the trading assets"
      },
      "setPyth(address)": {
        "notice": "Sets the Pyth address"
      },
      "setStorkPublicKey(address)": {
        "notice": "Sets the stork public key (address)"
      },
      "setStorkVerify(address)": {
        "notice": "Sets the stork verify address"
      },
      "setSupraPullOracle(address)": {
        "notice": "Sets the Supra pull oracle address"
      },
      "setSupraStorageOracle(address)": {
        "notice": "Sets the Supra storage address"
      },
      "setTimeTolerance(uint256)": {
        "notice": "Sets the time tolerance"
      },
      "setTreasury(address)": {
        "notice": "Sets the treasury address"
      },
      "setUSDT(address)": {
        "notice": "Sets the usdt address"
      },
      "supportsInterface(bytes4)": {
        "notice": "Interface checker"
      },
      "updateChainlinkPriceFeedsUsd(address[],address[])": {
        "notice": "Sets or updates the Chainlink price feed for the list of tokens to usd."
      },
      "updateOrallySymbols((string,address[2])[])": {
        "notice": "Sets or updates the Orally token symbol for the list of tokens (tokens order MATTERS)"
      },
      "updatePriceDropFeed(address,address,address)": {
        "notice": "Updates the priceDrop feed for a specific pair of assets."
      },
      "updatePriceDropFeeds((address,address,address)[])": {
        "notice": "Updates the priceDrop feed for a specific pair of assets."
      },
      "updatePullOracle(bytes[][],uint256[])": {
        "notice": "Updates pull oracle data for passed oracle types"
      },
      "updatePythPairId(address[],bytes32[])": {
        "notice": "Sets or updates the Pyth pair ids for the list of tokens."
      },
      "updateStorkPairIds((string,address[2])[])": {
        "notice": "Sets or updates the Stork Pair Ids"
      },
      "updateSupraDataFeed((address,address,(uint256,bool))[])": {
        "notice": "Sets or updates the Supra price feeds for the list of tokens."
      },
      "updateUniv3TrustedPair((uint256,address,address,bool)[])": {
        "notice": "Sets or updates the Supra price feeds for the list of tokens."
      },
      "updateUniv3TypeOracle(uint256[],address[])": {
        "notice": "Sets Uni v3-based TWAP price oracle contracts."
      }
    },
    "version": 1
  },
  "storageLayout": {
    "storage": [
      {
        "astId": 2890,
        "contract": "contracts/PriceOracle/PriceOracle.sol:PriceOracle",
        "label": "_initialized",
        "offset": 0,
        "slot": "0",
        "type": "t_uint8"
      },
      {
        "astId": 2893,
        "contract": "contracts/PriceOracle/PriceOracle.sol:PriceOracle",
        "label": "_initializing",
        "offset": 1,
        "slot": "0",
        "type": "t_bool"
      },
      {
        "astId": 6506,
        "contract": "contracts/PriceOracle/PriceOracle.sol:PriceOracle",
        "label": "__gap",
        "offset": 0,
        "slot": "1",
        "type": "t_array(t_uint256)50_storage"
      },
      {
        "astId": 56263,
        "contract": "contracts/PriceOracle/PriceOracle.sol:PriceOracle",
        "label": "registry",
        "offset": 0,
        "slot": "51",
        "type": "t_address"
      },
      {
        "astId": 56266,
        "contract": "contracts/PriceOracle/PriceOracle.sol:PriceOracle",
        "label": "eth",
        "offset": 0,
        "slot": "52",
        "type": "t_address"
      },
      {
        "astId": 56269,
        "contract": "contracts/PriceOracle/PriceOracle.sol:PriceOracle",
        "label": "gasPriceFeed",
        "offset": 0,
        "slot": "53",
        "type": "t_address"
      },
      {
        "astId": 56276,
        "contract": "contracts/PriceOracle/PriceOracle.sol:PriceOracle",
        "label": "pairPriceDrops",
        "offset": 0,
        "slot": "54",
        "type": "t_mapping(t_address,t_mapping(t_address,t_uint256))"
      },
      {
        "astId": 56283,
        "contract": "contracts/PriceOracle/PriceOracle.sol:PriceOracle",
        "label": "oraclePriceDropFeeds",
        "offset": 0,
        "slot": "55",
        "type": "t_mapping(t_address,t_mapping(t_address,t_address))"
      },
      {
        "astId": 56290,
        "contract": "contracts/PriceOracle/PriceOracle.sol:PriceOracle",
        "label": "chainLinkPriceFeeds",
        "offset": 0,
        "slot": "56",
        "type": "t_mapping(t_address,t_mapping(t_address,t_address))"
      },
      {
        "astId": 56299,
        "contract": "contracts/PriceOracle/PriceOracle.sol:PriceOracle",
        "label": "pyth",
        "offset": 0,
        "slot": "57",
        "type": "t_contract(IPyth)15052"
      },
      {
        "astId": 56302,
        "contract": "contracts/PriceOracle/PriceOracle.sol:PriceOracle",
        "label": "timeTolerance",
        "offset": 0,
        "slot": "58",
        "type": "t_uint256"
      },
      {
        "astId": 56307,
        "contract": "contracts/PriceOracle/PriceOracle.sol:PriceOracle",
        "label": "chainlinkPriceFeedsUsd",
        "offset": 0,
        "slot": "59",
        "type": "t_mapping(t_address,t_address)"
      },
      {
        "astId": 56312,
        "contract": "contracts/PriceOracle/PriceOracle.sol:PriceOracle",
        "label": "pythPairIds",
        "offset": 0,
        "slot": "60",
        "type": "t_mapping(t_address,t_bytes32)"
      },
      {
        "astId": 56317,
        "contract": "contracts/PriceOracle/PriceOracle.sol:PriceOracle",
        "label": "univ3TypeOracles",
        "offset": 0,
        "slot": "61",
        "type": "t_mapping(t_uint256,t_address)"
      },
      {
        "astId": 56326,
        "contract": "contracts/PriceOracle/PriceOracle.sol:PriceOracle",
        "label": "univ3TrustedPairs",
        "offset": 0,
        "slot": "62",
        "type": "t_mapping(t_uint256,t_mapping(t_address,t_mapping(t_address,t_bool)))"
      },
      {
        "astId": 56335,
        "contract": "contracts/PriceOracle/PriceOracle.sol:PriceOracle",
        "label": "supraPullOracle",
        "offset": 0,
        "slot": "63",
        "type": "t_contract(ISupraOraclePull)71607"
      },
      {
        "astId": 56339,
        "contract": "contracts/PriceOracle/PriceOracle.sol:PriceOracle",
        "label": "supraStorageOracle",
        "offset": 0,
        "slot": "64",
        "type": "t_contract(ISupraSValueFeed)71646"
      },
      {
        "astId": 56347,
        "contract": "contracts/PriceOracle/PriceOracle.sol:PriceOracle",
        "label": "supraDataFeedID",
        "offset": 0,
        "slot": "65",
        "type": "t_mapping(t_address,t_mapping(t_address,t_struct(SupraDataFeedId)53754_storage))"
      },
      {
        "astId": 56350,
        "contract": "contracts/PriceOracle/PriceOracle.sol:PriceOracle",
        "label": "usdt",
        "offset": 0,
        "slot": "66",
        "type": "t_address"
      },
      {
        "astId": 56353,
        "contract": "contracts/PriceOracle/PriceOracle.sol:PriceOracle",
        "label": "treasury",
        "offset": 0,
        "slot": "67",
        "type": "t_address"
      },
      {
        "astId": 56362,
        "contract": "contracts/PriceOracle/PriceOracle.sol:PriceOracle",
        "label": "orallyOracle",
        "offset": 0,
        "slot": "68",
        "type": "t_contract(IOrallyVerifierOracle)14815"
      },
      {
        "astId": 56369,
        "contract": "contracts/PriceOracle/PriceOracle.sol:PriceOracle",
        "label": "orallySymbol",
        "offset": 0,
        "slot": "69",
        "type": "t_mapping(t_address,t_mapping(t_address,t_string_storage))"
      },
      {
        "astId": 56372,
        "contract": "contracts/PriceOracle/PriceOracle.sol:PriceOracle",
        "label": "orallyTimeTolerance",
        "offset": 0,
        "slot": "70",
        "type": "t_uint256"
      },
      {
        "astId": 56376,
        "contract": "contracts/PriceOracle/PriceOracle.sol:PriceOracle",
        "label": "storkVerify",
        "offset": 0,
        "slot": "71",
        "type": "t_contract(IStorkVerify)71586"
      },
      {
        "astId": 56379,
        "contract": "contracts/PriceOracle/PriceOracle.sol:PriceOracle",
        "label": "storkPublicKey",
        "offset": 0,
        "slot": "72",
        "type": "t_address"
      },
      {
        "astId": 56386,
        "contract": "contracts/PriceOracle/PriceOracle.sol:PriceOracle",
        "label": "storkAssetPairId",
        "offset": 0,
        "slot": "73",
        "type": "t_mapping(t_address,t_mapping(t_address,t_string_storage))"
      },
      {
        "astId": 56392,
        "contract": "contracts/PriceOracle/PriceOracle.sol:PriceOracle",
        "label": "curveTypeOracles",
        "offset": 0,
        "slot": "74",
        "type": "t_mapping(t_enum(CurveOracleKind)53794,t_address)"
      }
    ],
    "types": {
      "t_address": {
        "encoding": "inplace",
        "label": "address",
        "numberOfBytes": "20"
      },
      "t_array(t_uint256)50_storage": {
        "base": "t_uint256",
        "encoding": "inplace",
        "label": "uint256[50]",
        "numberOfBytes": "1600"
      },
      "t_bool": {
        "encoding": "inplace",
        "label": "bool",
        "numberOfBytes": "1"
      },
      "t_bytes32": {
        "encoding": "inplace",
        "label": "bytes32",
        "numberOfBytes": "32"
      },
      "t_contract(IOrallyVerifierOracle)14815": {
        "encoding": "inplace",
        "label": "contract IOrallyVerifierOracle",
        "numberOfBytes": "20"
      },
      "t_contract(IPyth)15052": {
        "encoding": "inplace",
        "label": "contract IPyth",
        "numberOfBytes": "20"
      },
      "t_contract(IStorkVerify)71586": {
        "encoding": "inplace",
        "label": "contract IStorkVerify",
        "numberOfBytes": "20"
      },
      "t_contract(ISupraOraclePull)71607": {
        "encoding": "inplace",
        "label": "contract ISupraOraclePull",
        "numberOfBytes": "20"
      },
      "t_contract(ISupraSValueFeed)71646": {
        "encoding": "inplace",
        "label": "contract ISupraSValueFeed",
        "numberOfBytes": "20"
      },
      "t_enum(CurveOracleKind)53794": {
        "encoding": "inplace",
        "label": "enum IPriceOracleStorageV4.CurveOracleKind",
        "numberOfBytes": "1"
      },
      "t_mapping(t_address,t_address)": {
        "encoding": "mapping",
        "key": "t_address",
        "label": "mapping(address => address)",
        "numberOfBytes": "32",
        "value": "t_address"
      },
      "t_mapping(t_address,t_bool)": {
        "encoding": "mapping",
        "key": "t_address",
        "label": "mapping(address => bool)",
        "numberOfBytes": "32",
        "value": "t_bool"
      },
      "t_mapping(t_address,t_bytes32)": {
        "encoding": "mapping",
        "key": "t_address",
        "label": "mapping(address => bytes32)",
        "numberOfBytes": "32",
        "value": "t_bytes32"
      },
      "t_mapping(t_address,t_mapping(t_address,t_address))": {
        "encoding": "mapping",
        "key": "t_address",
        "label": "mapping(address => mapping(address => address))",
        "numberOfBytes": "32",
        "value": "t_mapping(t_address,t_address)"
      },
      "t_mapping(t_address,t_mapping(t_address,t_bool))": {
        "encoding": "mapping",
        "key": "t_address",
        "label": "mapping(address => mapping(address => bool))",
        "numberOfBytes": "32",
        "value": "t_mapping(t_address,t_bool)"
      },
      "t_mapping(t_address,t_mapping(t_address,t_string_storage))": {
        "encoding": "mapping",
        "key": "t_address",
        "label": "mapping(address => mapping(address => string))",
        "numberOfBytes": "32",
        "value": "t_mapping(t_address,t_string_storage)"
      },
      "t_mapping(t_address,t_mapping(t_address,t_struct(SupraDataFeedId)53754_storage))": {
        "encoding": "mapping",
        "key": "t_address",
        "label": "mapping(address => mapping(address => struct IPriceOracleStorageV3.SupraDataFeedId))",
        "numberOfBytes": "32",
        "value": "t_mapping(t_address,t_struct(SupraDataFeedId)53754_storage)"
      },
      "t_mapping(t_address,t_mapping(t_address,t_uint256))": {
        "encoding": "mapping",
        "key": "t_address",
        "label": "mapping(address => mapping(address => uint256))",
        "numberOfBytes": "32",
        "value": "t_mapping(t_address,t_uint256)"
      },
      "t_mapping(t_address,t_string_storage)": {
        "encoding": "mapping",
        "key": "t_address",
        "label": "mapping(address => string)",
        "numberOfBytes": "32",
        "value": "t_string_storage"
      },
      "t_mapping(t_address,t_struct(SupraDataFeedId)53754_storage)": {
        "encoding": "mapping",
        "key": "t_address",
        "label": "mapping(address => struct IPriceOracleStorageV3.SupraDataFeedId)",
        "numberOfBytes": "32",
        "value": "t_struct(SupraDataFeedId)53754_storage"
      },
      "t_mapping(t_address,t_uint256)": {
        "encoding": "mapping",
        "key": "t_address",
        "label": "mapping(address => uint256)",
        "numberOfBytes": "32",
        "value": "t_uint256"
      },
      "t_mapping(t_enum(CurveOracleKind)53794,t_address)": {
        "encoding": "mapping",
        "key": "t_enum(CurveOracleKind)53794",
        "label": "mapping(enum IPriceOracleStorageV4.CurveOracleKind => address)",
        "numberOfBytes": "32",
        "value": "t_address"
      },
      "t_mapping(t_uint256,t_address)": {
        "encoding": "mapping",
        "key": "t_uint256",
        "label": "mapping(uint256 => address)",
        "numberOfBytes": "32",
        "value": "t_address"
      },
      "t_mapping(t_uint256,t_mapping(t_address,t_mapping(t_address,t_bool)))": {
        "encoding": "mapping",
        "key": "t_uint256",
        "label": "mapping(uint256 => mapping(address => mapping(address => bool)))",
        "numberOfBytes": "32",
        "value": "t_mapping(t_address,t_mapping(t_address,t_bool))"
      },
      "t_string_storage": {
        "encoding": "bytes",
        "label": "string",
        "numberOfBytes": "32"
      },
      "t_struct(SupraDataFeedId)53754_storage": {
        "encoding": "inplace",
        "label": "struct IPriceOracleStorageV3.SupraDataFeedId",
        "members": [
          {
            "astId": 53751,
            "contract": "contracts/PriceOracle/PriceOracle.sol:PriceOracle",
            "label": "id",
            "offset": 0,
            "slot": "0",
            "type": "t_uint256"
          },
          {
            "astId": 53753,
            "contract": "contracts/PriceOracle/PriceOracle.sol:PriceOracle",
            "label": "initialize",
            "offset": 0,
            "slot": "1",
            "type": "t_bool"
          }
        ],
        "numberOfBytes": "64"
      },
      "t_uint256": {
        "encoding": "inplace",
        "label": "uint256",
        "numberOfBytes": "32"
      },
      "t_uint8": {
        "encoding": "inplace",
        "label": "uint8",
        "numberOfBytes": "1"
      }
    }
  }
}